{
  "contractName": "ErcFactory",
  "abi": [
    {
      "anonymous": false,
      "inputs": [
        {
          "indexed": true,
          "internalType": "address",
          "name": "_tokenAddress",
          "type": "address"
        }
      ],
      "name": "TokenCreated",
      "type": "event"
    },
    {
      "inputs": [
        {
          "internalType": "uint256",
          "name": "initialSupply",
          "type": "uint256"
        },
        {
          "internalType": "string",
          "name": "name",
          "type": "string"
        },
        {
          "internalType": "string",
          "name": "symbol",
          "type": "string"
        }
      ],
      "name": "createStandardToken",
      "outputs": [
        {
          "internalType": "address",
          "name": "TokenAddress",
          "type": "address"
        }
      ],
      "stateMutability": "nonpayable",
      "type": "function"
    },
    {
      "inputs": [
        {
          "internalType": "uint256",
          "name": "initialSupply",
          "type": "uint256"
        },
        {
          "internalType": "string",
          "name": "name",
          "type": "string"
        },
        {
          "internalType": "string",
          "name": "symbol",
          "type": "string"
        }
      ],
      "name": "createBurnableToken",
      "outputs": [
        {
          "internalType": "address",
          "name": "TokenAddress",
          "type": "address"
        }
      ],
      "stateMutability": "nonpayable",
      "type": "function"
    },
    {
      "inputs": [
        {
          "internalType": "uint256",
          "name": "initialSupply",
          "type": "uint256"
        },
        {
          "internalType": "string",
          "name": "name",
          "type": "string"
        },
        {
          "internalType": "string",
          "name": "symbol",
          "type": "string"
        }
      ],
      "name": "createMintableToken",
      "outputs": [
        {
          "internalType": "address",
          "name": "",
          "type": "address"
        }
      ],
      "stateMutability": "nonpayable",
      "type": "function"
    }
  ],
  "bytecode": "0x608060405234801561001057600080fd5b50615f4f806100206000396000f3fe60806040523480156200001157600080fd5b5060043610620000465760003560e01c806374394d78146200004b578063a79d4a181462000081578063d67bebb614620000b7575b600080fd5b6200006960048036038101906200006391906200047e565b620000ed565b6040516200007891906200055d565b60405180910390f35b6200009f60048036038101906200009991906200047e565b6200017f565b604051620000ae91906200055d565b60405180910390f35b620000d56004803603810190620000cf91906200047e565b62000211565b604051620000e491906200055d565b60405180910390f35b600080338585856040516200010290620002a3565b6200011194939291906200061e565b604051809103906000f0801580156200012e573d6000803e3d6000fd5b5090508073ffffffffffffffffffffffffffffffffffffffff167f2e2b3f61b70d2d131b2a807371103cc98d51adcaa5e9a8f9c32658ad8426e74e60405160405180910390a2809150509392505050565b600080338585856040516200019490620002b1565b620001a394939291906200061e565b604051809103906000f080158015620001c0573d6000803e3d6000fd5b5090508073ffffffffffffffffffffffffffffffffffffffff167f2e2b3f61b70d2d131b2a807371103cc98d51adcaa5e9a8f9c32658ad8426e74e60405160405180910390a2809150509392505050565b600080338585856040516200022690620002bf565b6200023594939291906200061e565b604051809103906000f08015801562000252573d6000803e3d6000fd5b5090508073ffffffffffffffffffffffffffffffffffffffff167f2e2b3f61b70d2d131b2a807371103cc98d51adcaa5e9a8f9c32658ad8426e74e60405160405180910390a2809150509392505050565b611e9c806200067a83390190565b611eff806200251683390190565b611b05806200441583390190565b6000604051905090565b600080fd5b600080fd5b6000819050919050565b620002f681620002e1565b81146200030257600080fd5b50565b6000813590506200031681620002eb565b92915050565b600080fd5b600080fd5b6000601f19601f8301169050919050565b7f4e487b7100000000000000000000000000000000000000000000000000000000600052604160045260246000fd5b620003718262000326565b810181811067ffffffffffffffff8211171562000393576200039262000337565b5b80604052505050565b6000620003a8620002cd565b9050620003b6828262000366565b919050565b600067ffffffffffffffff821115620003d957620003d862000337565b5b620003e48262000326565b9050602081019050919050565b82818337600083830152505050565b6000620004176200041184620003bb565b6200039c565b90508281526020810184848401111562000436576200043562000321565b5b62000443848285620003f1565b509392505050565b600082601f8301126200046357620004626200031c565b5b81356200047584826020860162000400565b91505092915050565b6000806000606084860312156200049a5762000499620002d7565b5b6000620004aa8682870162000305565b935050602084013567ffffffffffffffff811115620004ce57620004cd620002dc565b5b620004dc868287016200044b565b925050604084013567ffffffffffffffff8111156200050057620004ff620002dc565b5b6200050e868287016200044b565b9150509250925092565b600073ffffffffffffffffffffffffffffffffffffffff82169050919050565b6000620005458262000518565b9050919050565b620005578162000538565b82525050565b60006020820190506200057460008301846200054c565b92915050565b6200058581620002e1565b82525050565b600081519050919050565b600082825260208201905092915050565b60005b83811015620005c7578082015181840152602081019050620005aa565b83811115620005d7576000848401525b50505050565b6000620005ea826200058b565b620005f6818562000596565b935062000608818560208601620005a7565b620006138162000326565b840191505092915050565b60006080820190506200063560008301876200054c565b6200064460208301866200057a565b8181036040830152620006588185620005dd565b905081810360608301526200066e8184620005dd565b90509594505050505056fe60806040523480156200001157600080fd5b5060405162001e9c38038062001e9c8339818101604052810190620000379190620004f9565b81818160039080519060200190620000519291906200020c565b5080600490805190602001906200006a9291906200020c565b5050506200007f84846200008960201b60201c565b505050506200074b565b600073ffffffffffffffffffffffffffffffffffffffff168273ffffffffffffffffffffffffffffffffffffffff161415620000fc576040517f08c379a0000000000000000000000000000000000000000000000000000000008152600401620000f3906200060a565b60405180910390fd5b62000110600083836200020260201b60201c565b80600260008282546200012491906200065b565b92505081905550806000808473ffffffffffffffffffffffffffffffffffffffff1673ffffffffffffffffffffffffffffffffffffffff16815260200190815260200160002060008282546200017b91906200065b565b925050819055508173ffffffffffffffffffffffffffffffffffffffff16600073ffffffffffffffffffffffffffffffffffffffff167fddf252ad1be2c89b69c2b068fc378daa952ba7f163c4a11628f55a4df523b3ef83604051620001e29190620006c9565b60405180910390a3620001fe600083836200020760201b60201c565b5050565b505050565b505050565b8280546200021a9062000715565b90600052602060002090601f0160209004810192826200023e57600085556200028a565b82601f106200025957805160ff19168380011785556200028a565b828001600101855582156200028a579182015b82811115620002895782518255916020019190600101906200026c565b5b5090506200029991906200029d565b5090565b5b80821115620002b85760008160009055506001016200029e565b5090565b6000604051905090565b600080fd5b600080fd5b600073ffffffffffffffffffffffffffffffffffffffff82169050919050565b6000620002fd82620002d0565b9050919050565b6200030f81620002f0565b81146200031b57600080fd5b50565b6000815190506200032f8162000304565b92915050565b6000819050919050565b6200034a8162000335565b81146200035657600080fd5b50565b6000815190506200036a816200033f565b92915050565b600080fd5b600080fd5b6000601f19601f8301169050919050565b7f4e487b7100000000000000000000000000000000000000000000000000000000600052604160045260246000fd5b620003c5826200037a565b810181811067ffffffffffffffff82111715620003e757620003e66200038b565b5b80604052505050565b6000620003fc620002bc565b90506200040a8282620003ba565b919050565b600067ffffffffffffffff8211156200042d576200042c6200038b565b5b62000438826200037a565b9050602081019050919050565b60005b838110156200046557808201518184015260208101905062000448565b8381111562000475576000848401525b50505050565b6000620004926200048c846200040f565b620003f0565b905082815260208101848484011115620004b157620004b062000375565b5b620004be84828562000445565b509392505050565b600082601f830112620004de57620004dd62000370565b5b8151620004f08482602086016200047b565b91505092915050565b60008060008060808587031215620005165762000515620002c6565b5b600062000526878288016200031e565b9450506020620005398782880162000359565b935050604085015167ffffffffffffffff8111156200055d576200055c620002cb565b5b6200056b87828801620004c6565b925050606085015167ffffffffffffffff8111156200058f576200058e620002cb565b5b6200059d87828801620004c6565b91505092959194509250565b600082825260208201905092915050565b7f45524332303a206d696e7420746f20746865207a65726f206164647265737300600082015250565b6000620005f2601f83620005a9565b9150620005ff82620005ba565b602082019050919050565b600060208201905081810360008301526200062581620005e3565b9050919050565b7f4e487b7100000000000000000000000000000000000000000000000000000000600052601160045260246000fd5b6000620006688262000335565b9150620006758362000335565b9250827fffffffffffffffffffffffffffffffffffffffffffffffffffffffffffffffff03821115620006ad57620006ac6200062c565b5b828201905092915050565b620006c38162000335565b82525050565b6000602082019050620006e06000830184620006b8565b92915050565b7f4e487b7100000000000000000000000000000000000000000000000000000000600052602260045260246000fd5b600060028204905060018216806200072e57607f821691505b60208210811415620007455762000744620006e6565b5b50919050565b611741806200075b6000396000f3fe608060405234801561001057600080fd5b50600436106100b45760003560e01c806342966c681161007157806342966c68146101a357806370a08231146101bf57806395d89b41146101ef578063a457c2d71461020d578063a9059cbb1461023d578063dd62ed3e1461026d576100b4565b806306fdde03146100b9578063095ea7b3146100d757806318160ddd1461010757806323b872dd14610125578063313ce567146101555780633950935114610173575b600080fd5b6100c161029d565b6040516100ce9190610e50565b60405180910390f35b6100f160048036038101906100ec9190610f0b565b61032f565b6040516100fe9190610f66565b60405180910390f35b61010f61034d565b60405161011c9190610f90565b60405180910390f35b61013f600480360381019061013a9190610fab565b610357565b60405161014c9190610f66565b60405180910390f35b61015d61044f565b60405161016a919061101a565b60405180910390f35b61018d60048036038101906101889190610f0b565b610458565b60405161019a9190610f66565b60405180910390f35b6101bd60048036038101906101b89190611035565b610504565b005b6101d960048036038101906101d49190611062565b610518565b6040516101e69190610f90565b60405180910390f35b6101f7610560565b6040516102049190610e50565b60405180910390f35b61022760048036038101906102229190610f0b565b6105f2565b6040516102349190610f66565b60405180910390f35b61025760048036038101906102529190610f0b565b6106dd565b6040516102649190610f66565b60405180910390f35b6102876004803603810190610282919061108f565b6106fb565b6040516102949190610f90565b60405180910390f35b6060600380546102ac906110fe565b80601f01602080910402602001604051908101604052809291908181526020018280546102d8906110fe565b80156103255780601f106102fa57610100808354040283529160200191610325565b820191906000526020600020905b81548152906001019060200180831161030857829003601f168201915b5050505050905090565b600061034361033c610782565b848461078a565b6001905092915050565b6000600254905090565b6000610364848484610955565b6000600160008673ffffffffffffffffffffffffffffffffffffffff1673ffffffffffffffffffffffffffffffffffffffff16815260200190815260200160002060006103af610782565b73ffffffffffffffffffffffffffffffffffffffff1673ffffffffffffffffffffffffffffffffffffffff1681526020019081526020016000205490508281101561042f576040517f08c379a0000000000000000000000000000000000000000000000000000000008152600401610426906111a2565b60405180910390fd5b6104438561043b610782565b85840361078a565b60019150509392505050565b60006012905090565b60006104fa610465610782565b848460016000610473610782565b73ffffffffffffffffffffffffffffffffffffffff1673ffffffffffffffffffffffffffffffffffffffff16815260200190815260200160002060008873ffffffffffffffffffffffffffffffffffffffff1673ffffffffffffffffffffffffffffffffffffffff168152602001908152602001600020546104f591906111f1565b61078a565b6001905092915050565b61051561050f610782565b82610bd6565b50565b60008060008373ffffffffffffffffffffffffffffffffffffffff1673ffffffffffffffffffffffffffffffffffffffff168152602001908152602001600020549050919050565b60606004805461056f906110fe565b80601f016020809104026020016040519081016040528092919081815260200182805461059b906110fe565b80156105e85780601f106105bd576101008083540402835291602001916105e8565b820191906000526020600020905b8154815290600101906020018083116105cb57829003601f168201915b5050505050905090565b60008060016000610601610782565b73ffffffffffffffffffffffffffffffffffffffff1673ffffffffffffffffffffffffffffffffffffffff16815260200190815260200160002060008573ffffffffffffffffffffffffffffffffffffffff1673ffffffffffffffffffffffffffffffffffffffff168152602001908152602001600020549050828110156106be576040517f08c379a00000000000000000000000000000000000000000000000000000000081526004016106b5906112b9565b60405180910390fd5b6106d26106c9610782565b8585840361078a565b600191505092915050565b60006106f16106ea610782565b8484610955565b6001905092915050565b6000600160008473ffffffffffffffffffffffffffffffffffffffff1673ffffffffffffffffffffffffffffffffffffffff16815260200190815260200160002060008373ffffffffffffffffffffffffffffffffffffffff1673ffffffffffffffffffffffffffffffffffffffff16815260200190815260200160002054905092915050565b600033905090565b600073ffffffffffffffffffffffffffffffffffffffff168373ffffffffffffffffffffffffffffffffffffffff1614156107fa576040517f08c379a00000000000000000000000000000000000000000000000000000000081526004016107f19061134b565b60405180910390fd5b600073ffffffffffffffffffffffffffffffffffffffff168273ffffffffffffffffffffffffffffffffffffffff16141561086a576040517f08c379a0000000000000000000000000000000000000000000000000000000008152600401610861906113dd565b60405180910390fd5b80600160008573ffffffffffffffffffffffffffffffffffffffff1673ffffffffffffffffffffffffffffffffffffffff16815260200190815260200160002060008473ffffffffffffffffffffffffffffffffffffffff1673ffffffffffffffffffffffffffffffffffffffff168152602001908152602001600020819055508173ffffffffffffffffffffffffffffffffffffffff168373ffffffffffffffffffffffffffffffffffffffff167f8c5be1e5ebec7d5bd14f71427d1e84f3dd0314c0f7b2291e5b200ac8c7c3b925836040516109489190610f90565b60405180910390a3505050565b600073ffffffffffffffffffffffffffffffffffffffff168373ffffffffffffffffffffffffffffffffffffffff1614156109c5576040517f08c379a00000000000000000000000000000000000000000000000000000000081526004016109bc9061146f565b60405180910390fd5b600073ffffffffffffffffffffffffffffffffffffffff168273ffffffffffffffffffffffffffffffffffffffff161415610a35576040517f08c379a0000000000000000000000000000000000000000000000000000000008152600401610a2c90611501565b60405180910390fd5b610a40838383610dad565b60008060008573ffffffffffffffffffffffffffffffffffffffff1673ffffffffffffffffffffffffffffffffffffffff16815260200190815260200160002054905081811015610ac6576040517f08c379a0000000000000000000000000000000000000000000000000000000008152600401610abd90611593565b60405180910390fd5b8181036000808673ffffffffffffffffffffffffffffffffffffffff1673ffffffffffffffffffffffffffffffffffffffff16815260200190815260200160002081905550816000808573ffffffffffffffffffffffffffffffffffffffff1673ffffffffffffffffffffffffffffffffffffffff1681526020019081526020016000206000828254610b5991906111f1565b925050819055508273ffffffffffffffffffffffffffffffffffffffff168473ffffffffffffffffffffffffffffffffffffffff167fddf252ad1be2c89b69c2b068fc378daa952ba7f163c4a11628f55a4df523b3ef84604051610bbd9190610f90565b60405180910390a3610bd0848484610db2565b50505050565b600073ffffffffffffffffffffffffffffffffffffffff168273ffffffffffffffffffffffffffffffffffffffff161415610c46576040517f08c379a0000000000000000000000000000000000000000000000000000000008152600401610c3d90611625565b60405180910390fd5b610c5282600083610dad565b60008060008473ffffffffffffffffffffffffffffffffffffffff1673ffffffffffffffffffffffffffffffffffffffff16815260200190815260200160002054905081811015610cd8576040517f08c379a0000000000000000000000000000000000000000000000000000000008152600401610ccf906116b7565b60405180910390fd5b8181036000808573ffffffffffffffffffffffffffffffffffffffff1673ffffffffffffffffffffffffffffffffffffffff168152602001908152602001600020819055508160026000828254610d2f91906116d7565b92505081905550600073ffffffffffffffffffffffffffffffffffffffff168373ffffffffffffffffffffffffffffffffffffffff167fddf252ad1be2c89b69c2b068fc378daa952ba7f163c4a11628f55a4df523b3ef84604051610d949190610f90565b60405180910390a3610da883600084610db2565b505050565b505050565b505050565b600081519050919050565b600082825260208201905092915050565b60005b83811015610df1578082015181840152602081019050610dd6565b83811115610e00576000848401525b50505050565b6000601f19601f8301169050919050565b6000610e2282610db7565b610e2c8185610dc2565b9350610e3c818560208601610dd3565b610e4581610e06565b840191505092915050565b60006020820190508181036000830152610e6a8184610e17565b905092915050565b600080fd5b600073ffffffffffffffffffffffffffffffffffffffff82169050919050565b6000610ea282610e77565b9050919050565b610eb281610e97565b8114610ebd57600080fd5b50565b600081359050610ecf81610ea9565b92915050565b6000819050919050565b610ee881610ed5565b8114610ef357600080fd5b50565b600081359050610f0581610edf565b92915050565b60008060408385031215610f2257610f21610e72565b5b6000610f3085828601610ec0565b9250506020610f4185828601610ef6565b9150509250929050565b60008115159050919050565b610f6081610f4b565b82525050565b6000602082019050610f7b6000830184610f57565b92915050565b610f8a81610ed5565b82525050565b6000602082019050610fa56000830184610f81565b92915050565b600080600060608486031215610fc457610fc3610e72565b5b6000610fd286828701610ec0565b9350506020610fe386828701610ec0565b9250506040610ff486828701610ef6565b9150509250925092565b600060ff82169050919050565b61101481610ffe565b82525050565b600060208201905061102f600083018461100b565b92915050565b60006020828403121561104b5761104a610e72565b5b600061105984828501610ef6565b91505092915050565b60006020828403121561107857611077610e72565b5b600061108684828501610ec0565b91505092915050565b600080604083850312156110a6576110a5610e72565b5b60006110b485828601610ec0565b92505060206110c585828601610ec0565b9150509250929050565b7f4e487b7100000000000000000000000000000000000000000000000000000000600052602260045260246000fd5b6000600282049050600182168061111657607f821691505b6020821081141561112a576111296110cf565b5b50919050565b7f45524332303a207472616e7366657220616d6f756e742065786365656473206160008201527f6c6c6f77616e6365000000000000000000000000000000000000000000000000602082015250565b600061118c602883610dc2565b915061119782611130565b604082019050919050565b600060208201905081810360008301526111bb8161117f565b9050919050565b7f4e487b7100000000000000000000000000000000000000000000000000000000600052601160045260246000fd5b60006111fc82610ed5565b915061120783610ed5565b9250827fffffffffffffffffffffffffffffffffffffffffffffffffffffffffffffffff0382111561123c5761123b6111c2565b5b828201905092915050565b7f45524332303a2064656372656173656420616c6c6f77616e63652062656c6f7760008201527f207a65726f000000000000000000000000000000000000000000000000000000602082015250565b60006112a3602583610dc2565b91506112ae82611247565b604082019050919050565b600060208201905081810360008301526112d281611296565b9050919050565b7f45524332303a20617070726f76652066726f6d20746865207a65726f2061646460008201527f7265737300000000000000000000000000000000000000000000000000000000602082015250565b6000611335602483610dc2565b9150611340826112d9565b604082019050919050565b6000602082019050818103600083015261136481611328565b9050919050565b7f45524332303a20617070726f766520746f20746865207a65726f20616464726560008201527f7373000000000000000000000000000000000000000000000000000000000000602082015250565b60006113c7602283610dc2565b91506113d28261136b565b604082019050919050565b600060208201905081810360008301526113f6816113ba565b9050919050565b7f45524332303a207472616e736665722066726f6d20746865207a65726f20616460008201527f6472657373000000000000000000000000000000000000000000000000000000602082015250565b6000611459602583610dc2565b9150611464826113fd565b604082019050919050565b600060208201905081810360008301526114888161144c565b9050919050565b7f45524332303a207472616e7366657220746f20746865207a65726f206164647260008201527f6573730000000000000000000000000000000000000000000000000000000000602082015250565b60006114eb602383610dc2565b91506114f68261148f565b604082019050919050565b6000602082019050818103600083015261151a816114de565b9050919050565b7f45524332303a207472616e7366657220616d6f756e742065786365656473206260008201527f616c616e63650000000000000000000000000000000000000000000000000000602082015250565b600061157d602683610dc2565b915061158882611521565b604082019050919050565b600060208201905081810360008301526115ac81611570565b9050919050565b7f45524332303a206275726e2066726f6d20746865207a65726f2061646472657360008201527f7300000000000000000000000000000000000000000000000000000000000000602082015250565b600061160f602183610dc2565b915061161a826115b3565b604082019050919050565b6000602082019050818103600083015261163e81611602565b9050919050565b7f45524332303a206275726e20616d6f756e7420657863656564732062616c616e60008201527f6365000000000000000000000000000000000000000000000000000000000000602082015250565b60006116a1602283610dc2565b91506116ac82611645565b604082019050919050565b600060208201905081810360008301526116d081611694565b9050919050565b60006116e282610ed5565b91506116ed83610ed5565b925082821015611700576116ff6111c2565b5b82820390509291505056fea264697066735822122033662ee63a43fe4c1152213f4300fde8d202615d5448a6d3758d55aa4884f9ab64736f6c634300080a003360806040523480156200001157600080fd5b5060405162001eff38038062001eff83398181016040528101906200003791906200053a565b81818160039080519060200190620000519291906200024d565b5080600490805190602001906200006a9291906200024d565b50505083600560006101000a81548173ffffffffffffffffffffffffffffffffffffffff021916908373ffffffffffffffffffffffffffffffffffffffff160217905550620000c08484620000ca60201b60201c565b505050506200078c565b600073ffffffffffffffffffffffffffffffffffffffff168273ffffffffffffffffffffffffffffffffffffffff1614156200013d576040517f08c379a000000000000000000000000000000000000000000000000000000000815260040162000134906200064b565b60405180910390fd5b62000151600083836200024360201b60201c565b80600260008282546200016591906200069c565b92505081905550806000808473ffffffffffffffffffffffffffffffffffffffff1673ffffffffffffffffffffffffffffffffffffffff1681526020019081526020016000206000828254620001bc91906200069c565b925050819055508173ffffffffffffffffffffffffffffffffffffffff16600073ffffffffffffffffffffffffffffffffffffffff167fddf252ad1be2c89b69c2b068fc378daa952ba7f163c4a11628f55a4df523b3ef836040516200022391906200070a565b60405180910390a36200023f600083836200024860201b60201c565b5050565b505050565b505050565b8280546200025b9062000756565b90600052602060002090601f0160209004810192826200027f5760008555620002cb565b82601f106200029a57805160ff1916838001178555620002cb565b82800160010185558215620002cb579182015b82811115620002ca578251825591602001919060010190620002ad565b5b509050620002da9190620002de565b5090565b5b80821115620002f9576000816000905550600101620002df565b5090565b6000604051905090565b600080fd5b600080fd5b600073ffffffffffffffffffffffffffffffffffffffff82169050919050565b60006200033e8262000311565b9050919050565b620003508162000331565b81146200035c57600080fd5b50565b600081519050620003708162000345565b92915050565b6000819050919050565b6200038b8162000376565b81146200039757600080fd5b50565b600081519050620003ab8162000380565b92915050565b600080fd5b600080fd5b6000601f19601f8301169050919050565b7f4e487b7100000000000000000000000000000000000000000000000000000000600052604160045260246000fd5b6200040682620003bb565b810181811067ffffffffffffffff82111715620004285762000427620003cc565b5b80604052505050565b60006200043d620002fd565b90506200044b8282620003fb565b919050565b600067ffffffffffffffff8211156200046e576200046d620003cc565b5b6200047982620003bb565b9050602081019050919050565b60005b83811015620004a657808201518184015260208101905062000489565b83811115620004b6576000848401525b50505050565b6000620004d3620004cd8462000450565b62000431565b905082815260208101848484011115620004f257620004f1620003b6565b5b620004ff84828562000486565b509392505050565b600082601f8301126200051f576200051e620003b1565b5b815162000531848260208601620004bc565b91505092915050565b6000806000806080858703121562000557576200055662000307565b5b600062000567878288016200035f565b94505060206200057a878288016200039a565b935050604085015167ffffffffffffffff8111156200059e576200059d6200030c565b5b620005ac8782880162000507565b925050606085015167ffffffffffffffff811115620005d057620005cf6200030c565b5b620005de8782880162000507565b91505092959194509250565b600082825260208201905092915050565b7f45524332303a206d696e7420746f20746865207a65726f206164647265737300600082015250565b600062000633601f83620005ea565b91506200064082620005fb565b602082019050919050565b60006020820190508181036000830152620006668162000624565b9050919050565b7f4e487b7100000000000000000000000000000000000000000000000000000000600052601160045260246000fd5b6000620006a98262000376565b9150620006b68362000376565b9250827fffffffffffffffffffffffffffffffffffffffffffffffffffffffffffffffff03821115620006ee57620006ed6200066d565b5b828201905092915050565b620007048162000376565b82525050565b6000602082019050620007216000830184620006f9565b92915050565b7f4e487b7100000000000000000000000000000000000000000000000000000000600052602260045260246000fd5b600060028204905060018216806200076f57607f821691505b6020821081141562000786576200078562000727565b5b50919050565b611763806200079c6000396000f3fe608060405234801561001057600080fd5b50600436106100cf5760003560e01c806370a082311161008c578063a457c2d711610066578063a457c2d714610228578063a9059cbb14610258578063b4a99a4e14610288578063dd62ed3e146102a6576100cf565b806370a08231146101be57806395d89b41146101ee578063a0712d681461020c576100cf565b806306fdde03146100d4578063095ea7b3146100f257806318160ddd1461012257806323b872dd14610140578063313ce56714610170578063395093511461018e575b600080fd5b6100dc6102d6565b6040516100e99190610ec8565b60405180910390f35b61010c60048036038101906101079190610f83565b610368565b6040516101199190610fde565b60405180910390f35b61012a610386565b6040516101379190611008565b60405180910390f35b61015a60048036038101906101559190611023565b610390565b6040516101679190610fde565b60405180910390f35b610178610488565b6040516101859190611092565b60405180910390f35b6101a860048036038101906101a39190610f83565b610491565b6040516101b59190610fde565b60405180910390f35b6101d860048036038101906101d391906110ad565b61053d565b6040516101e59190611008565b60405180910390f35b6101f6610585565b6040516102039190610ec8565b60405180910390f35b610226600480360381019061022191906110da565b610617565b005b610242600480360381019061023d9190610f83565b6106bb565b60405161024f9190610fde565b60405180910390f35b610272600480360381019061026d9190610f83565b6107a6565b60405161027f9190610fde565b60405180910390f35b6102906107c4565b60405161029d9190611116565b60405180910390f35b6102c060048036038101906102bb9190611131565b6107ea565b6040516102cd9190611008565b60405180910390f35b6060600380546102e5906111a0565b80601f0160208091040260200160405190810160405280929190818152602001828054610311906111a0565b801561035e5780601f106103335761010080835404028352916020019161035e565b820191906000526020600020905b81548152906001019060200180831161034157829003601f168201915b5050505050905090565b600061037c610375610871565b8484610879565b6001905092915050565b6000600254905090565b600061039d848484610a44565b6000600160008673ffffffffffffffffffffffffffffffffffffffff1673ffffffffffffffffffffffffffffffffffffffff16815260200190815260200160002060006103e8610871565b73ffffffffffffffffffffffffffffffffffffffff1673ffffffffffffffffffffffffffffffffffffffff16815260200190815260200160002054905082811015610468576040517f08c379a000000000000000000000000000000000000000000000000000000000815260040161045f90611244565b60405180910390fd5b61047c85610474610871565b858403610879565b60019150509392505050565b60006012905090565b600061053361049e610871565b8484600160006104ac610871565b73ffffffffffffffffffffffffffffffffffffffff1673ffffffffffffffffffffffffffffffffffffffff16815260200190815260200160002060008873ffffffffffffffffffffffffffffffffffffffff1673ffffffffffffffffffffffffffffffffffffffff1681526020019081526020016000205461052e9190611293565b610879565b6001905092915050565b60008060008373ffffffffffffffffffffffffffffffffffffffff1673ffffffffffffffffffffffffffffffffffffffff168152602001908152602001600020549050919050565b606060048054610594906111a0565b80601f01602080910402602001604051908101604052809291908181526020018280546105c0906111a0565b801561060d5780601f106105e25761010080835404028352916020019161060d565b820191906000526020600020905b8154815290600101906020018083116105f057829003601f168201915b5050505050905090565b600560009054906101000a900473ffffffffffffffffffffffffffffffffffffffff1673ffffffffffffffffffffffffffffffffffffffff163373ffffffffffffffffffffffffffffffffffffffff16146106a7576040517f08c379a000000000000000000000000000000000000000000000000000000000815260040161069e90611335565b60405180910390fd5b6106b86106b2610871565b82610cc5565b50565b600080600160006106ca610871565b73ffffffffffffffffffffffffffffffffffffffff1673ffffffffffffffffffffffffffffffffffffffff16815260200190815260200160002060008573ffffffffffffffffffffffffffffffffffffffff1673ffffffffffffffffffffffffffffffffffffffff16815260200190815260200160002054905082811015610787576040517f08c379a000000000000000000000000000000000000000000000000000000000815260040161077e906113c7565b60405180910390fd5b61079b610792610871565b85858403610879565b600191505092915050565b60006107ba6107b3610871565b8484610a44565b6001905092915050565b600560009054906101000a900473ffffffffffffffffffffffffffffffffffffffff1681565b6000600160008473ffffffffffffffffffffffffffffffffffffffff1673ffffffffffffffffffffffffffffffffffffffff16815260200190815260200160002060008373ffffffffffffffffffffffffffffffffffffffff1673ffffffffffffffffffffffffffffffffffffffff16815260200190815260200160002054905092915050565b600033905090565b600073ffffffffffffffffffffffffffffffffffffffff168373ffffffffffffffffffffffffffffffffffffffff1614156108e9576040517f08c379a00000000000000000000000000000000000000000000000000000000081526004016108e090611459565b60405180910390fd5b600073ffffffffffffffffffffffffffffffffffffffff168273ffffffffffffffffffffffffffffffffffffffff161415610959576040517f08c379a0000000000000000000000000000000000000000000000000000000008152600401610950906114eb565b60405180910390fd5b80600160008573ffffffffffffffffffffffffffffffffffffffff1673ffffffffffffffffffffffffffffffffffffffff16815260200190815260200160002060008473ffffffffffffffffffffffffffffffffffffffff1673ffffffffffffffffffffffffffffffffffffffff168152602001908152602001600020819055508173ffffffffffffffffffffffffffffffffffffffff168373ffffffffffffffffffffffffffffffffffffffff167f8c5be1e5ebec7d5bd14f71427d1e84f3dd0314c0f7b2291e5b200ac8c7c3b92583604051610a379190611008565b60405180910390a3505050565b600073ffffffffffffffffffffffffffffffffffffffff168373ffffffffffffffffffffffffffffffffffffffff161415610ab4576040517f08c379a0000000000000000000000000000000000000000000000000000000008152600401610aab9061157d565b60405180910390fd5b600073ffffffffffffffffffffffffffffffffffffffff168273ffffffffffffffffffffffffffffffffffffffff161415610b24576040517f08c379a0000000000000000000000000000000000000000000000000000000008152600401610b1b9061160f565b60405180910390fd5b610b2f838383610e25565b60008060008573ffffffffffffffffffffffffffffffffffffffff1673ffffffffffffffffffffffffffffffffffffffff16815260200190815260200160002054905081811015610bb5576040517f08c379a0000000000000000000000000000000000000000000000000000000008152600401610bac906116a1565b60405180910390fd5b8181036000808673ffffffffffffffffffffffffffffffffffffffff1673ffffffffffffffffffffffffffffffffffffffff16815260200190815260200160002081905550816000808573ffffffffffffffffffffffffffffffffffffffff1673ffffffffffffffffffffffffffffffffffffffff1681526020019081526020016000206000828254610c489190611293565b925050819055508273ffffffffffffffffffffffffffffffffffffffff168473ffffffffffffffffffffffffffffffffffffffff167fddf252ad1be2c89b69c2b068fc378daa952ba7f163c4a11628f55a4df523b3ef84604051610cac9190611008565b60405180910390a3610cbf848484610e2a565b50505050565b600073ffffffffffffffffffffffffffffffffffffffff168273ffffffffffffffffffffffffffffffffffffffff161415610d35576040517f08c379a0000000000000000000000000000000000000000000000000000000008152600401610d2c9061170d565b60405180910390fd5b610d4160008383610e25565b8060026000828254610d539190611293565b92505081905550806000808473ffffffffffffffffffffffffffffffffffffffff1673ffffffffffffffffffffffffffffffffffffffff1681526020019081526020016000206000828254610da89190611293565b925050819055508173ffffffffffffffffffffffffffffffffffffffff16600073ffffffffffffffffffffffffffffffffffffffff167fddf252ad1be2c89b69c2b068fc378daa952ba7f163c4a11628f55a4df523b3ef83604051610e0d9190611008565b60405180910390a3610e2160008383610e2a565b5050565b505050565b505050565b600081519050919050565b600082825260208201905092915050565b60005b83811015610e69578082015181840152602081019050610e4e565b83811115610e78576000848401525b50505050565b6000601f19601f8301169050919050565b6000610e9a82610e2f565b610ea48185610e3a565b9350610eb4818560208601610e4b565b610ebd81610e7e565b840191505092915050565b60006020820190508181036000830152610ee28184610e8f565b905092915050565b600080fd5b600073ffffffffffffffffffffffffffffffffffffffff82169050919050565b6000610f1a82610eef565b9050919050565b610f2a81610f0f565b8114610f3557600080fd5b50565b600081359050610f4781610f21565b92915050565b6000819050919050565b610f6081610f4d565b8114610f6b57600080fd5b50565b600081359050610f7d81610f57565b92915050565b60008060408385031215610f9a57610f99610eea565b5b6000610fa885828601610f38565b9250506020610fb985828601610f6e565b9150509250929050565b60008115159050919050565b610fd881610fc3565b82525050565b6000602082019050610ff36000830184610fcf565b92915050565b61100281610f4d565b82525050565b600060208201905061101d6000830184610ff9565b92915050565b60008060006060848603121561103c5761103b610eea565b5b600061104a86828701610f38565b935050602061105b86828701610f38565b925050604061106c86828701610f6e565b9150509250925092565b600060ff82169050919050565b61108c81611076565b82525050565b60006020820190506110a76000830184611083565b92915050565b6000602082840312156110c3576110c2610eea565b5b60006110d184828501610f38565b91505092915050565b6000602082840312156110f0576110ef610eea565b5b60006110fe84828501610f6e565b91505092915050565b61111081610f0f565b82525050565b600060208201905061112b6000830184611107565b92915050565b6000806040838503121561114857611147610eea565b5b600061115685828601610f38565b925050602061116785828601610f38565b9150509250929050565b7f4e487b7100000000000000000000000000000000000000000000000000000000600052602260045260246000fd5b600060028204905060018216806111b857607f821691505b602082108114156111cc576111cb611171565b5b50919050565b7f45524332303a207472616e7366657220616d6f756e742065786365656473206160008201527f6c6c6f77616e6365000000000000000000000000000000000000000000000000602082015250565b600061122e602883610e3a565b9150611239826111d2565b604082019050919050565b6000602082019050818103600083015261125d81611221565b9050919050565b7f4e487b7100000000000000000000000000000000000000000000000000000000600052601160045260246000fd5b600061129e82610f4d565b91506112a983610f4d565b9250827fffffffffffffffffffffffffffffffffffffffffffffffffffffffffffffffff038211156112de576112dd611264565b5b828201905092915050565b7f6f6e6c79204f776e657200000000000000000000000000000000000000000000600082015250565b600061131f600a83610e3a565b915061132a826112e9565b602082019050919050565b6000602082019050818103600083015261134e81611312565b9050919050565b7f45524332303a2064656372656173656420616c6c6f77616e63652062656c6f7760008201527f207a65726f000000000000000000000000000000000000000000000000000000602082015250565b60006113b1602583610e3a565b91506113bc82611355565b604082019050919050565b600060208201905081810360008301526113e0816113a4565b9050919050565b7f45524332303a20617070726f76652066726f6d20746865207a65726f2061646460008201527f7265737300000000000000000000000000000000000000000000000000000000602082015250565b6000611443602483610e3a565b915061144e826113e7565b604082019050919050565b6000602082019050818103600083015261147281611436565b9050919050565b7f45524332303a20617070726f766520746f20746865207a65726f20616464726560008201527f7373000000000000000000000000000000000000000000000000000000000000602082015250565b60006114d5602283610e3a565b91506114e082611479565b604082019050919050565b60006020820190508181036000830152611504816114c8565b9050919050565b7f45524332303a207472616e736665722066726f6d20746865207a65726f20616460008201527f6472657373000000000000000000000000000000000000000000000000000000602082015250565b6000611567602583610e3a565b91506115728261150b565b604082019050919050565b600060208201905081810360008301526115968161155a565b9050919050565b7f45524332303a207472616e7366657220746f20746865207a65726f206164647260008201527f6573730000000000000000000000000000000000000000000000000000000000602082015250565b60006115f9602383610e3a565b91506116048261159d565b604082019050919050565b60006020820190508181036000830152611628816115ec565b9050919050565b7f45524332303a207472616e7366657220616d6f756e742065786365656473206260008201527f616c616e63650000000000000000000000000000000000000000000000000000602082015250565b600061168b602683610e3a565b91506116968261162f565b604082019050919050565b600060208201905081810360008301526116ba8161167e565b9050919050565b7f45524332303a206d696e7420746f20746865207a65726f206164647265737300600082015250565b60006116f7601f83610e3a565b9150611702826116c1565b602082019050919050565b60006020820190508181036000830152611726816116ea565b905091905056fea26469706673582212206897e4031b817a64ad81c713d5330cc773d2d1f825545eeff8fdb516378baeb964736f6c634300080a003360806040523480156200001157600080fd5b5060405162001b0538038062001b058339818101604052810190620000379190620004f9565b81818160039080519060200190620000519291906200020c565b5080600490805190602001906200006a9291906200020c565b5050506200007f84846200008960201b60201c565b505050506200074b565b600073ffffffffffffffffffffffffffffffffffffffff168273ffffffffffffffffffffffffffffffffffffffff161415620000fc576040517f08c379a0000000000000000000000000000000000000000000000000000000008152600401620000f3906200060a565b60405180910390fd5b62000110600083836200020260201b60201c565b80600260008282546200012491906200065b565b92505081905550806000808473ffffffffffffffffffffffffffffffffffffffff1673ffffffffffffffffffffffffffffffffffffffff16815260200190815260200160002060008282546200017b91906200065b565b925050819055508173ffffffffffffffffffffffffffffffffffffffff16600073ffffffffffffffffffffffffffffffffffffffff167fddf252ad1be2c89b69c2b068fc378daa952ba7f163c4a11628f55a4df523b3ef83604051620001e29190620006c9565b60405180910390a3620001fe600083836200020760201b60201c565b5050565b505050565b505050565b8280546200021a9062000715565b90600052602060002090601f0160209004810192826200023e57600085556200028a565b82601f106200025957805160ff19168380011785556200028a565b828001600101855582156200028a579182015b82811115620002895782518255916020019190600101906200026c565b5b5090506200029991906200029d565b5090565b5b80821115620002b85760008160009055506001016200029e565b5090565b6000604051905090565b600080fd5b600080fd5b600073ffffffffffffffffffffffffffffffffffffffff82169050919050565b6000620002fd82620002d0565b9050919050565b6200030f81620002f0565b81146200031b57600080fd5b50565b6000815190506200032f8162000304565b92915050565b6000819050919050565b6200034a8162000335565b81146200035657600080fd5b50565b6000815190506200036a816200033f565b92915050565b600080fd5b600080fd5b6000601f19601f8301169050919050565b7f4e487b7100000000000000000000000000000000000000000000000000000000600052604160045260246000fd5b620003c5826200037a565b810181811067ffffffffffffffff82111715620003e757620003e66200038b565b5b80604052505050565b6000620003fc620002bc565b90506200040a8282620003ba565b919050565b600067ffffffffffffffff8211156200042d576200042c6200038b565b5b62000438826200037a565b9050602081019050919050565b60005b838110156200046557808201518184015260208101905062000448565b8381111562000475576000848401525b50505050565b6000620004926200048c846200040f565b620003f0565b905082815260208101848484011115620004b157620004b062000375565b5b620004be84828562000445565b509392505050565b600082601f830112620004de57620004dd62000370565b5b8151620004f08482602086016200047b565b91505092915050565b60008060008060808587031215620005165762000515620002c6565b5b600062000526878288016200031e565b9450506020620005398782880162000359565b935050604085015167ffffffffffffffff8111156200055d576200055c620002cb565b5b6200056b87828801620004c6565b925050606085015167ffffffffffffffff8111156200058f576200058e620002cb565b5b6200059d87828801620004c6565b91505092959194509250565b600082825260208201905092915050565b7f45524332303a206d696e7420746f20746865207a65726f206164647265737300600082015250565b6000620005f2601f83620005a9565b9150620005ff82620005ba565b602082019050919050565b600060208201905081810360008301526200062581620005e3565b9050919050565b7f4e487b7100000000000000000000000000000000000000000000000000000000600052601160045260246000fd5b6000620006688262000335565b9150620006758362000335565b9250827fffffffffffffffffffffffffffffffffffffffffffffffffffffffffffffffff03821115620006ad57620006ac6200062c565b5b828201905092915050565b620006c38162000335565b82525050565b6000602082019050620006e06000830184620006b8565b92915050565b7f4e487b7100000000000000000000000000000000000000000000000000000000600052602260045260246000fd5b600060028204905060018216806200072e57607f821691505b60208210811415620007455762000744620006e6565b5b50919050565b6113aa806200075b6000396000f3fe608060405234801561001057600080fd5b50600436106100a95760003560e01c80633950935111610071578063395093511461016857806370a082311461019857806395d89b41146101c8578063a457c2d7146101e6578063a9059cbb14610216578063dd62ed3e14610246576100a9565b806306fdde03146100ae578063095ea7b3146100cc57806318160ddd146100fc57806323b872dd1461011a578063313ce5671461014a575b600080fd5b6100b6610276565b6040516100c39190610c3e565b60405180910390f35b6100e660048036038101906100e19190610cf9565b610308565b6040516100f39190610d54565b60405180910390f35b610104610326565b6040516101119190610d7e565b60405180910390f35b610134600480360381019061012f9190610d99565b610330565b6040516101419190610d54565b60405180910390f35b610152610428565b60405161015f9190610e08565b60405180910390f35b610182600480360381019061017d9190610cf9565b610431565b60405161018f9190610d54565b60405180910390f35b6101b260048036038101906101ad9190610e23565b6104dd565b6040516101bf9190610d7e565b60405180910390f35b6101d0610525565b6040516101dd9190610c3e565b60405180910390f35b61020060048036038101906101fb9190610cf9565b6105b7565b60405161020d9190610d54565b60405180910390f35b610230600480360381019061022b9190610cf9565b6106a2565b60405161023d9190610d54565b60405180910390f35b610260600480360381019061025b9190610e50565b6106c0565b60405161026d9190610d7e565b60405180910390f35b60606003805461028590610ebf565b80601f01602080910402602001604051908101604052809291908181526020018280546102b190610ebf565b80156102fe5780601f106102d3576101008083540402835291602001916102fe565b820191906000526020600020905b8154815290600101906020018083116102e157829003601f168201915b5050505050905090565b600061031c610315610747565b848461074f565b6001905092915050565b6000600254905090565b600061033d84848461091a565b6000600160008673ffffffffffffffffffffffffffffffffffffffff1673ffffffffffffffffffffffffffffffffffffffff1681526020019081526020016000206000610388610747565b73ffffffffffffffffffffffffffffffffffffffff1673ffffffffffffffffffffffffffffffffffffffff16815260200190815260200160002054905082811015610408576040517f08c379a00000000000000000000000000000000000000000000000000000000081526004016103ff90610f63565b60405180910390fd5b61041c85610414610747565b85840361074f565b60019150509392505050565b60006012905090565b60006104d361043e610747565b84846001600061044c610747565b73ffffffffffffffffffffffffffffffffffffffff1673ffffffffffffffffffffffffffffffffffffffff16815260200190815260200160002060008873ffffffffffffffffffffffffffffffffffffffff1673ffffffffffffffffffffffffffffffffffffffff168152602001908152602001600020546104ce9190610fb2565b61074f565b6001905092915050565b60008060008373ffffffffffffffffffffffffffffffffffffffff1673ffffffffffffffffffffffffffffffffffffffff168152602001908152602001600020549050919050565b60606004805461053490610ebf565b80601f016020809104026020016040519081016040528092919081815260200182805461056090610ebf565b80156105ad5780601f10610582576101008083540402835291602001916105ad565b820191906000526020600020905b81548152906001019060200180831161059057829003601f168201915b5050505050905090565b600080600160006105c6610747565b73ffffffffffffffffffffffffffffffffffffffff1673ffffffffffffffffffffffffffffffffffffffff16815260200190815260200160002060008573ffffffffffffffffffffffffffffffffffffffff1673ffffffffffffffffffffffffffffffffffffffff16815260200190815260200160002054905082811015610683576040517f08c379a000000000000000000000000000000000000000000000000000000000815260040161067a9061107a565b60405180910390fd5b61069761068e610747565b8585840361074f565b600191505092915050565b60006106b66106af610747565b848461091a565b6001905092915050565b6000600160008473ffffffffffffffffffffffffffffffffffffffff1673ffffffffffffffffffffffffffffffffffffffff16815260200190815260200160002060008373ffffffffffffffffffffffffffffffffffffffff1673ffffffffffffffffffffffffffffffffffffffff16815260200190815260200160002054905092915050565b600033905090565b600073ffffffffffffffffffffffffffffffffffffffff168373ffffffffffffffffffffffffffffffffffffffff1614156107bf576040517f08c379a00000000000000000000000000000000000000000000000000000000081526004016107b69061110c565b60405180910390fd5b600073ffffffffffffffffffffffffffffffffffffffff168273ffffffffffffffffffffffffffffffffffffffff16141561082f576040517f08c379a00000000000000000000000000000000000000000000000000000000081526004016108269061119e565b60405180910390fd5b80600160008573ffffffffffffffffffffffffffffffffffffffff1673ffffffffffffffffffffffffffffffffffffffff16815260200190815260200160002060008473ffffffffffffffffffffffffffffffffffffffff1673ffffffffffffffffffffffffffffffffffffffff168152602001908152602001600020819055508173ffffffffffffffffffffffffffffffffffffffff168373ffffffffffffffffffffffffffffffffffffffff167f8c5be1e5ebec7d5bd14f71427d1e84f3dd0314c0f7b2291e5b200ac8c7c3b9258360405161090d9190610d7e565b60405180910390a3505050565b600073ffffffffffffffffffffffffffffffffffffffff168373ffffffffffffffffffffffffffffffffffffffff16141561098a576040517f08c379a000000000000000000000000000000000000000000000000000000000815260040161098190611230565b60405180910390fd5b600073ffffffffffffffffffffffffffffffffffffffff168273ffffffffffffffffffffffffffffffffffffffff1614156109fa576040517f08c379a00000000000000000000000000000000000000000000000000000000081526004016109f1906112c2565b60405180910390fd5b610a05838383610b9b565b60008060008573ffffffffffffffffffffffffffffffffffffffff1673ffffffffffffffffffffffffffffffffffffffff16815260200190815260200160002054905081811015610a8b576040517f08c379a0000000000000000000000000000000000000000000000000000000008152600401610a8290611354565b60405180910390fd5b8181036000808673ffffffffffffffffffffffffffffffffffffffff1673ffffffffffffffffffffffffffffffffffffffff16815260200190815260200160002081905550816000808573ffffffffffffffffffffffffffffffffffffffff1673ffffffffffffffffffffffffffffffffffffffff1681526020019081526020016000206000828254610b1e9190610fb2565b925050819055508273ffffffffffffffffffffffffffffffffffffffff168473ffffffffffffffffffffffffffffffffffffffff167fddf252ad1be2c89b69c2b068fc378daa952ba7f163c4a11628f55a4df523b3ef84604051610b829190610d7e565b60405180910390a3610b95848484610ba0565b50505050565b505050565b505050565b600081519050919050565b600082825260208201905092915050565b60005b83811015610bdf578082015181840152602081019050610bc4565b83811115610bee576000848401525b50505050565b6000601f19601f8301169050919050565b6000610c1082610ba5565b610c1a8185610bb0565b9350610c2a818560208601610bc1565b610c3381610bf4565b840191505092915050565b60006020820190508181036000830152610c588184610c05565b905092915050565b600080fd5b600073ffffffffffffffffffffffffffffffffffffffff82169050919050565b6000610c9082610c65565b9050919050565b610ca081610c85565b8114610cab57600080fd5b50565b600081359050610cbd81610c97565b92915050565b6000819050919050565b610cd681610cc3565b8114610ce157600080fd5b50565b600081359050610cf381610ccd565b92915050565b60008060408385031215610d1057610d0f610c60565b5b6000610d1e85828601610cae565b9250506020610d2f85828601610ce4565b9150509250929050565b60008115159050919050565b610d4e81610d39565b82525050565b6000602082019050610d696000830184610d45565b92915050565b610d7881610cc3565b82525050565b6000602082019050610d936000830184610d6f565b92915050565b600080600060608486031215610db257610db1610c60565b5b6000610dc086828701610cae565b9350506020610dd186828701610cae565b9250506040610de286828701610ce4565b9150509250925092565b600060ff82169050919050565b610e0281610dec565b82525050565b6000602082019050610e1d6000830184610df9565b92915050565b600060208284031215610e3957610e38610c60565b5b6000610e4784828501610cae565b91505092915050565b60008060408385031215610e6757610e66610c60565b5b6000610e7585828601610cae565b9250506020610e8685828601610cae565b9150509250929050565b7f4e487b7100000000000000000000000000000000000000000000000000000000600052602260045260246000fd5b60006002820490506001821680610ed757607f821691505b60208210811415610eeb57610eea610e90565b5b50919050565b7f45524332303a207472616e7366657220616d6f756e742065786365656473206160008201527f6c6c6f77616e6365000000000000000000000000000000000000000000000000602082015250565b6000610f4d602883610bb0565b9150610f5882610ef1565b604082019050919050565b60006020820190508181036000830152610f7c81610f40565b9050919050565b7f4e487b7100000000000000000000000000000000000000000000000000000000600052601160045260246000fd5b6000610fbd82610cc3565b9150610fc883610cc3565b9250827fffffffffffffffffffffffffffffffffffffffffffffffffffffffffffffffff03821115610ffd57610ffc610f83565b5b828201905092915050565b7f45524332303a2064656372656173656420616c6c6f77616e63652062656c6f7760008201527f207a65726f000000000000000000000000000000000000000000000000000000602082015250565b6000611064602583610bb0565b915061106f82611008565b604082019050919050565b6000602082019050818103600083015261109381611057565b9050919050565b7f45524332303a20617070726f76652066726f6d20746865207a65726f2061646460008201527f7265737300000000000000000000000000000000000000000000000000000000602082015250565b60006110f6602483610bb0565b91506111018261109a565b604082019050919050565b60006020820190508181036000830152611125816110e9565b9050919050565b7f45524332303a20617070726f766520746f20746865207a65726f20616464726560008201527f7373000000000000000000000000000000000000000000000000000000000000602082015250565b6000611188602283610bb0565b91506111938261112c565b604082019050919050565b600060208201905081810360008301526111b78161117b565b9050919050565b7f45524332303a207472616e736665722066726f6d20746865207a65726f20616460008201527f6472657373000000000000000000000000000000000000000000000000000000602082015250565b600061121a602583610bb0565b9150611225826111be565b604082019050919050565b600060208201905081810360008301526112498161120d565b9050919050565b7f45524332303a207472616e7366657220746f20746865207a65726f206164647260008201527f6573730000000000000000000000000000000000000000000000000000000000602082015250565b60006112ac602383610bb0565b91506112b782611250565b604082019050919050565b600060208201905081810360008301526112db8161129f565b9050919050565b7f45524332303a207472616e7366657220616d6f756e742065786365656473206260008201527f616c616e63650000000000000000000000000000000000000000000000000000602082015250565b600061133e602683610bb0565b9150611349826112e2565b604082019050919050565b6000602082019050818103600083015261136d81611331565b905091905056fea26469706673582212206a535b86946c858675f81719b8a5e7f53b4bd869d43b09ea1e850ff56b7f62c464736f6c634300080a0033a26469706673582212200147632394a4c016463077e11ea254f7909720f91e34aa212c8c0cd0fd61cb7c64736f6c634300080a0033",
  "immutableReferences": {},
  "source": "// contracts/GLDToken.sol\r\n// SPDX-License-Identifier: MIT\r\n\r\npragma solidity ^0.8.0;\r\n\r\nimport \"./tokenStandards/ERC20_Standard.sol\";\r\nimport \"./tokenStandards/ERC20_Burnable.sol\";\r\nimport \"./tokenStandards/ERC20_Mintable.sol\";\r\n\r\n\r\ncontract ErcFactory{\r\n    event TokenCreated (address indexed _tokenAddress);\r\n\r\n    function createStandardToken(uint256 initialSupply, string memory name, string memory symbol)external returns(address TokenAddress){\r\n        ERC20  newToken = new ERC20_Standard(msg.sender, initialSupply, name, symbol);\r\n        emit TokenCreated(address(newToken));\r\n        return address(newToken);\r\n    }\r\n    function createBurnableToken(uint256 initialSupply, string memory name, string memory symbol)external returns(address TokenAddress){\r\n        ERC20  newToken = new ERC20_Burnable(msg.sender, initialSupply, name, symbol);\r\n        emit TokenCreated(address(newToken));\r\n        return address(newToken);\r\n    }\r\n\r\n    function createMintableToken(uint256 initialSupply, string memory name, string memory symbol)external returns(address){\r\n    ERC20_Mintable newToken = new ERC20_Mintable(msg.sender, initialSupply, name, symbol);\r\n    emit TokenCreated(address(newToken));\r\n\r\n    return address(newToken);\r\n  }\r\n}\r\n",
  "sourcePath": "C:\\Users\\Nutzer\\Documents\\DefiSpices\\Protocol\\contracts\\DefiSpicesFactory.sol",
  "compiler": {
    "name": "solc",
    "version": "0.8.10+commit.fc410830.Emscripten.clang"
  },
  "schemaVersion": "3.4.4",
  "updatedAt": "2022-02-13T22:47:15.405Z",
  "networkType": "ethereum",
  "devdoc": {
    "kind": "dev",
    "methods": {},
    "version": 1
  },
  "userdoc": {
    "kind": "user",
    "methods": {},
    "version": 1
  }
}