{
  "contractName": "ErcFactory",
  "abi": [
    {
      "anonymous": false,
      "inputs": [
        {
          "indexed": true,
          "internalType": "address",
          "name": "_tokenAddress",
          "type": "address"
        }
      ],
      "name": "TokenCreated",
      "type": "event"
    },
    {
      "inputs": [
        {
          "internalType": "uint256",
          "name": "initialSupply",
          "type": "uint256"
        },
        {
          "internalType": "string",
          "name": "name",
          "type": "string"
        },
        {
          "internalType": "string",
          "name": "symbol",
          "type": "string"
        }
      ],
      "name": "createStandardToken",
      "outputs": [
        {
          "internalType": "address",
          "name": "TokenAddress",
          "type": "address"
        }
      ],
      "stateMutability": "nonpayable",
      "type": "function"
    },
    {
      "inputs": [
        {
          "internalType": "uint256",
          "name": "initialSupply",
          "type": "uint256"
        },
        {
          "internalType": "string",
          "name": "name",
          "type": "string"
        },
        {
          "internalType": "string",
          "name": "symbol",
          "type": "string"
        }
      ],
      "name": "createBurnableToken",
      "outputs": [
        {
          "internalType": "address",
          "name": "TokenAddress",
          "type": "address"
        }
      ],
      "stateMutability": "nonpayable",
      "type": "function"
    },
    {
      "inputs": [
        {
          "internalType": "uint256",
          "name": "initialSupply",
          "type": "uint256"
        },
        {
          "internalType": "string",
          "name": "name",
          "type": "string"
        },
        {
          "internalType": "string",
          "name": "symbol",
          "type": "string"
        }
      ],
      "name": "createMintableToken",
      "outputs": [
        {
          "internalType": "address",
          "name": "",
          "type": "address"
        }
      ],
      "stateMutability": "nonpayable",
      "type": "function"
    },
    {
      "inputs": [
        {
          "internalType": "uint256",
          "name": "initialSupply",
          "type": "uint256"
        },
        {
          "internalType": "string",
          "name": "name",
          "type": "string"
        },
        {
          "internalType": "string",
          "name": "symbol",
          "type": "string"
        },
        {
          "internalType": "uint256",
          "name": "_cap",
          "type": "uint256"
        }
      ],
      "name": "createCappedToken",
      "outputs": [
        {
          "internalType": "address",
          "name": "",
          "type": "address"
        }
      ],
      "stateMutability": "nonpayable",
      "type": "function"
    },
    {
      "inputs": [
        {
          "internalType": "uint256",
          "name": "initialSupply",
          "type": "uint256"
        },
        {
          "internalType": "string",
          "name": "name",
          "type": "string"
        },
        {
          "internalType": "string",
          "name": "symbol",
          "type": "string"
        }
      ],
      "name": "createPepperToken",
      "outputs": [
        {
          "internalType": "address",
          "name": "",
          "type": "address"
        }
      ],
      "stateMutability": "nonpayable",
      "type": "function"
    }
  ],
  "bytecode": "0x608060405234801561001057600080fd5b50614de9806100206000396000f3fe60806040523480156200001157600080fd5b50600436106200005e5760003560e01c806346171b20146200006357806374394d781462000096578063a52cb3b314620000ad578063a79d4a1814620000c4578063d67bebb614620000db575b600080fd5b6200007a6200007436600462000327565b620000f2565b6040516001600160a01b03909116815260200160405180910390f35b6200007a620000a736600462000327565b62000173565b6200007a620000be3660046200039b565b62000188565b6200007a620000d536600462000327565b6200020c565b6200007a620000ec36600462000327565b62000221565b60008033858585604051620001079062000236565b62000116949392919062000467565b604051809103906000f08015801562000133573d6000803e3d6000fd5b506040519091506001600160a01b038216907f2e2b3f61b70d2d131b2a807371103cc98d51adcaa5e9a8f9c32658ad8426e74e90600090a2949350505050565b60008033858585604051620001079062000244565b60008033868686866040516200019e9062000252565b620001ae959493929190620004af565b604051809103906000f080158015620001cb573d6000803e3d6000fd5b506040519091506001600160a01b038216907f2e2b3f61b70d2d131b2a807371103cc98d51adcaa5e9a8f9c32658ad8426e74e90600090a295945050505050565b60008033858585604051620001079062000260565b6000803385858560405162000107906200026e565b61100e806200050083390190565b610e55806200150e83390190565b610f38806200236383390190565b610e70806200329b83390190565b610ca9806200410b83390190565b634e487b7160e01b600052604160045260246000fd5b600082601f830112620002a457600080fd5b813567ffffffffffffffff80821115620002c257620002c26200027c565b604051601f8301601f19908116603f01168101908282118183101715620002ed57620002ed6200027c565b816040528381528660208588010111156200030757600080fd5b836020870160208301376000602085830101528094505050505092915050565b6000806000606084860312156200033d57600080fd5b83359250602084013567ffffffffffffffff808211156200035d57600080fd5b6200036b8783880162000292565b935060408601359150808211156200038257600080fd5b50620003918682870162000292565b9150509250925092565b60008060008060808587031215620003b257600080fd5b84359350602085013567ffffffffffffffff80821115620003d257600080fd5b620003e08883890162000292565b94506040870135915080821115620003f757600080fd5b50620004068782880162000292565b949793965093946060013593505050565b6000815180845260005b818110156200043f5760208185018101518683018201520162000421565b8181111562000452576000602083870101525b50601f01601f19169290920160200192915050565b60018060a01b038516815283602082015260806040820152600062000490608083018562000417565b8281036060840152620004a4818562000417565b979650505050505050565b60018060a01b038616815284602082015260a060408201526000620004d860a083018662000417565b8281036060840152620004ec818662000417565b915050826080830152969550505050505056fe60806040523480156200001157600080fd5b506040516200100e3803806200100e8339810160408190526200003491620002f2565b8151829082906200004d9060039060208501906200017f565b508051620000639060049060208401906200017f565b5050600580546001600160a01b0319166001600160a01b038716179055506200008d848462000097565b50505050620003ea565b6001600160a01b038216620000f25760405162461bcd60e51b815260206004820152601f60248201527f45524332303a206d696e7420746f20746865207a65726f206164647265737300604482015260640160405180910390fd5b806002600082825462000106919062000386565b90915550506001600160a01b038216600090815260208190526040812080548392906200013590849062000386565b90915550506040518181526001600160a01b038316906000907fddf252ad1be2c89b69c2b068fc378daa952ba7f163c4a11628f55a4df523b3ef9060200160405180910390a35050565b8280546200018d90620003ad565b90600052602060002090601f016020900481019282620001b15760008555620001fc565b82601f10620001cc57805160ff1916838001178555620001fc565b82800160010185558215620001fc579182015b82811115620001fc578251825591602001919060010190620001df565b506200020a9291506200020e565b5090565b5b808211156200020a57600081556001016200020f565b634e487b7160e01b600052604160045260246000fd5b600082601f8301126200024d57600080fd5b81516001600160401b03808211156200026a576200026a62000225565b604051601f8301601f19908116603f0116810190828211818310171562000295576200029562000225565b81604052838152602092508683858801011115620002b257600080fd5b600091505b83821015620002d65785820183015181830184015290820190620002b7565b83821115620002e85760008385830101525b9695505050505050565b600080600080608085870312156200030957600080fd5b84516001600160a01b03811681146200032157600080fd5b6020860151604087015191955093506001600160401b03808211156200034657600080fd5b62000354888389016200023b565b935060608701519150808211156200036b57600080fd5b506200037a878288016200023b565b91505092959194509250565b60008219821115620003a857634e487b7160e01b600052601160045260246000fd5b500190565b600181811c90821680620003c257607f821691505b60208210811415620003e457634e487b7160e01b600052602260045260246000fd5b50919050565b610c1480620003fa6000396000f3fe608060405234801561001057600080fd5b50600436106100ea5760003560e01c806370a082311161008c578063a457c2d711610066578063a457c2d7146101d0578063a9059cbb146101e3578063b4a99a4e146101f6578063dd62ed3e1461022157600080fd5b806370a082311461018c57806395d89b41146101b5578063a0712d68146101bd57600080fd5b806323b872dd116100c857806323b872dd14610142578063313ce56714610155578063395093511461016457806342966c681461017757600080fd5b806306fdde03146100ef578063095ea7b31461010d57806318160ddd14610130575b600080fd5b6100f761025a565b6040516101049190610a19565b60405180910390f35b61012061011b366004610a8a565b6102ec565b6040519015158152602001610104565b6002545b604051908152602001610104565b610120610150366004610ab4565b610302565b60405160128152602001610104565b610120610172366004610a8a565b6103b1565b61018a610185366004610af0565b6103ed565b005b61013461019a366004610b09565b6001600160a01b031660009081526020819052604090205490565b6100f76103fa565b61018a6101cb366004610af0565b610409565b6101206101de366004610a8a565b61045a565b6101206101f1366004610a8a565b6104f3565b600554610209906001600160a01b031681565b6040516001600160a01b039091168152602001610104565b61013461022f366004610b2b565b6001600160a01b03918216600090815260016020908152604080832093909416825291909152205490565b60606003805461026990610b5e565b80601f016020809104026020016040519081016040528092919081815260200182805461029590610b5e565b80156102e25780601f106102b7576101008083540402835291602001916102e2565b820191906000526020600020905b8154815290600101906020018083116102c557829003601f168201915b5050505050905090565b60006102f9338484610500565b50600192915050565b600061030f848484610625565b6001600160a01b0384166000908152600160209081526040808320338452909152902054828110156103995760405162461bcd60e51b815260206004820152602860248201527f45524332303a207472616e7366657220616d6f756e74206578636565647320616044820152676c6c6f77616e636560c01b60648201526084015b60405180910390fd5b6103a68533858403610500565b506001949350505050565b3360008181526001602090815260408083206001600160a01b038716845290915281205490916102f99185906103e8908690610baf565b610500565b6103f733826107f4565b50565b60606004805461026990610b5e565b6005546001600160a01b031633146104505760405162461bcd60e51b815260206004820152600a60248201526937b7363c9027bbb732b960b11b6044820152606401610390565b6103f7338261093a565b3360009081526001602090815260408083206001600160a01b0386168452909152812054828110156104dc5760405162461bcd60e51b815260206004820152602560248201527f45524332303a2064656372656173656420616c6c6f77616e63652062656c6f77604482015264207a65726f60d81b6064820152608401610390565b6104e93385858403610500565b5060019392505050565b60006102f9338484610625565b6001600160a01b0383166105625760405162461bcd60e51b8152602060048201526024808201527f45524332303a20617070726f76652066726f6d20746865207a65726f206164646044820152637265737360e01b6064820152608401610390565b6001600160a01b0382166105c35760405162461bcd60e51b815260206004820152602260248201527f45524332303a20617070726f766520746f20746865207a65726f206164647265604482015261737360f01b6064820152608401610390565b6001600160a01b0383811660008181526001602090815260408083209487168084529482529182902085905590518481527f8c5be1e5ebec7d5bd14f71427d1e84f3dd0314c0f7b2291e5b200ac8c7c3b92591015b60405180910390a3505050565b6001600160a01b0383166106895760405162461bcd60e51b815260206004820152602560248201527f45524332303a207472616e736665722066726f6d20746865207a65726f206164604482015264647265737360d81b6064820152608401610390565b6001600160a01b0382166106eb5760405162461bcd60e51b815260206004820152602360248201527f45524332303a207472616e7366657220746f20746865207a65726f206164647260448201526265737360e81b6064820152608401610390565b6001600160a01b038316600090815260208190526040902054818110156107635760405162461bcd60e51b815260206004820152602660248201527f45524332303a207472616e7366657220616d6f756e7420657863656564732062604482015265616c616e636560d01b6064820152608401610390565b6001600160a01b0380851660009081526020819052604080822085850390559185168152908120805484929061079a908490610baf565b92505081905550826001600160a01b0316846001600160a01b03167fddf252ad1be2c89b69c2b068fc378daa952ba7f163c4a11628f55a4df523b3ef846040516107e691815260200190565b60405180910390a350505050565b6001600160a01b0382166108545760405162461bcd60e51b815260206004820152602160248201527f45524332303a206275726e2066726f6d20746865207a65726f206164647265736044820152607360f81b6064820152608401610390565b6001600160a01b038216600090815260208190526040902054818110156108c85760405162461bcd60e51b815260206004820152602260248201527f45524332303a206275726e20616d6f756e7420657863656564732062616c616e604482015261636560f01b6064820152608401610390565b6001600160a01b03831660009081526020819052604081208383039055600280548492906108f7908490610bc7565b90915550506040518281526000906001600160a01b038516907fddf252ad1be2c89b69c2b068fc378daa952ba7f163c4a11628f55a4df523b3ef90602001610618565b6001600160a01b0382166109905760405162461bcd60e51b815260206004820152601f60248201527f45524332303a206d696e7420746f20746865207a65726f2061646472657373006044820152606401610390565b80600260008282546109a29190610baf565b90915550506001600160a01b038216600090815260208190526040812080548392906109cf908490610baf565b90915550506040518181526001600160a01b038316906000907fddf252ad1be2c89b69c2b068fc378daa952ba7f163c4a11628f55a4df523b3ef9060200160405180910390a35050565b600060208083528351808285015260005b81811015610a4657858101830151858201604001528201610a2a565b81811115610a58576000604083870101525b50601f01601f1916929092016040019392505050565b80356001600160a01b0381168114610a8557600080fd5b919050565b60008060408385031215610a9d57600080fd5b610aa683610a6e565b946020939093013593505050565b600080600060608486031215610ac957600080fd5b610ad284610a6e565b9250610ae060208501610a6e565b9150604084013590509250925092565b600060208284031215610b0257600080fd5b5035919050565b600060208284031215610b1b57600080fd5b610b2482610a6e565b9392505050565b60008060408385031215610b3e57600080fd5b610b4783610a6e565b9150610b5560208401610a6e565b90509250929050565b600181811c90821680610b7257607f821691505b60208210811415610b9357634e487b7160e01b600052602260045260246000fd5b50919050565b634e487b7160e01b600052601160045260246000fd5b60008219821115610bc257610bc2610b99565b500190565b600082821015610bd957610bd9610b99565b50039056fea2646970667358221220abcdc20d4d6ecf080c4e99daf00cbfd791d184d0e5d1183b1dbc9dfd2a824ae964736f6c634300080a003360806040523480156200001157600080fd5b5060405162000e5538038062000e558339810160408190526200003491620002dd565b8151829082906200004d9060039060208501906200016a565b508051620000639060049060208401906200016a565b5050506200007884846200008260201b60201c565b50505050620003d5565b6001600160a01b038216620000dd5760405162461bcd60e51b815260206004820152601f60248201527f45524332303a206d696e7420746f20746865207a65726f206164647265737300604482015260640160405180910390fd5b8060026000828254620000f1919062000371565b90915550506001600160a01b038216600090815260208190526040812080548392906200012090849062000371565b90915550506040518181526001600160a01b038316906000907fddf252ad1be2c89b69c2b068fc378daa952ba7f163c4a11628f55a4df523b3ef9060200160405180910390a35050565b828054620001789062000398565b90600052602060002090601f0160209004810192826200019c5760008555620001e7565b82601f10620001b757805160ff1916838001178555620001e7565b82800160010185558215620001e7579182015b82811115620001e7578251825591602001919060010190620001ca565b50620001f5929150620001f9565b5090565b5b80821115620001f55760008155600101620001fa565b634e487b7160e01b600052604160045260246000fd5b600082601f8301126200023857600080fd5b81516001600160401b038082111562000255576200025562000210565b604051601f8301601f19908116603f0116810190828211818310171562000280576200028062000210565b816040528381526020925086838588010111156200029d57600080fd5b600091505b83821015620002c15785820183015181830184015290820190620002a2565b83821115620002d35760008385830101525b9695505050505050565b60008060008060808587031215620002f457600080fd5b84516001600160a01b03811681146200030c57600080fd5b6020860151604087015191955093506001600160401b03808211156200033157600080fd5b6200033f8883890162000226565b935060608701519150808211156200035657600080fd5b50620003658782880162000226565b91505092959194509250565b600082198211156200039357634e487b7160e01b600052601160045260246000fd5b500190565b600181811c90821680620003ad57607f821691505b60208210811415620003cf57634e487b7160e01b600052602260045260246000fd5b50919050565b610a7080620003e56000396000f3fe608060405234801561001057600080fd5b50600436106100b45760003560e01c806342966c681161007157806342966c681461014157806370a082311461015657806395d89b411461017f578063a457c2d714610187578063a9059cbb1461019a578063dd62ed3e146101ad57600080fd5b806306fdde03146100b9578063095ea7b3146100d757806318160ddd146100fa57806323b872dd1461010c578063313ce5671461011f578063395093511461012e575b600080fd5b6100c16101e6565b6040516100ce9190610875565b60405180910390f35b6100ea6100e53660046108e6565b610278565b60405190151581526020016100ce565b6002545b6040519081526020016100ce565b6100ea61011a366004610910565b61028e565b604051601281526020016100ce565b6100ea61013c3660046108e6565b61033d565b61015461014f36600461094c565b610379565b005b6100fe610164366004610965565b6001600160a01b031660009081526020819052604090205490565b6100c1610386565b6100ea6101953660046108e6565b610395565b6100ea6101a83660046108e6565b61042e565b6100fe6101bb366004610987565b6001600160a01b03918216600090815260016020908152604080832093909416825291909152205490565b6060600380546101f5906109ba565b80601f0160208091040260200160405190810160405280929190818152602001828054610221906109ba565b801561026e5780601f106102435761010080835404028352916020019161026e565b820191906000526020600020905b81548152906001019060200180831161025157829003601f168201915b5050505050905090565b600061028533848461043b565b50600192915050565b600061029b848484610560565b6001600160a01b0384166000908152600160209081526040808320338452909152902054828110156103255760405162461bcd60e51b815260206004820152602860248201527f45524332303a207472616e7366657220616d6f756e74206578636565647320616044820152676c6c6f77616e636560c01b60648201526084015b60405180910390fd5b610332853385840361043b565b506001949350505050565b3360008181526001602090815260408083206001600160a01b03871684529091528120549091610285918590610374908690610a0b565b61043b565b610383338261072f565b50565b6060600480546101f5906109ba565b3360009081526001602090815260408083206001600160a01b0386168452909152812054828110156104175760405162461bcd60e51b815260206004820152602560248201527f45524332303a2064656372656173656420616c6c6f77616e63652062656c6f77604482015264207a65726f60d81b606482015260840161031c565b610424338585840361043b565b5060019392505050565b6000610285338484610560565b6001600160a01b03831661049d5760405162461bcd60e51b8152602060048201526024808201527f45524332303a20617070726f76652066726f6d20746865207a65726f206164646044820152637265737360e01b606482015260840161031c565b6001600160a01b0382166104fe5760405162461bcd60e51b815260206004820152602260248201527f45524332303a20617070726f766520746f20746865207a65726f206164647265604482015261737360f01b606482015260840161031c565b6001600160a01b0383811660008181526001602090815260408083209487168084529482529182902085905590518481527f8c5be1e5ebec7d5bd14f71427d1e84f3dd0314c0f7b2291e5b200ac8c7c3b92591015b60405180910390a3505050565b6001600160a01b0383166105c45760405162461bcd60e51b815260206004820152602560248201527f45524332303a207472616e736665722066726f6d20746865207a65726f206164604482015264647265737360d81b606482015260840161031c565b6001600160a01b0382166106265760405162461bcd60e51b815260206004820152602360248201527f45524332303a207472616e7366657220746f20746865207a65726f206164647260448201526265737360e81b606482015260840161031c565b6001600160a01b0383166000908152602081905260409020548181101561069e5760405162461bcd60e51b815260206004820152602660248201527f45524332303a207472616e7366657220616d6f756e7420657863656564732062604482015265616c616e636560d01b606482015260840161031c565b6001600160a01b038085166000908152602081905260408082208585039055918516815290812080548492906106d5908490610a0b565b92505081905550826001600160a01b0316846001600160a01b03167fddf252ad1be2c89b69c2b068fc378daa952ba7f163c4a11628f55a4df523b3ef8460405161072191815260200190565b60405180910390a350505050565b6001600160a01b03821661078f5760405162461bcd60e51b815260206004820152602160248201527f45524332303a206275726e2066726f6d20746865207a65726f206164647265736044820152607360f81b606482015260840161031c565b6001600160a01b038216600090815260208190526040902054818110156108035760405162461bcd60e51b815260206004820152602260248201527f45524332303a206275726e20616d6f756e7420657863656564732062616c616e604482015261636560f01b606482015260840161031c565b6001600160a01b0383166000908152602081905260408120838303905560028054849290610832908490610a23565b90915550506040518281526000906001600160a01b038516907fddf252ad1be2c89b69c2b068fc378daa952ba7f163c4a11628f55a4df523b3ef90602001610553565b600060208083528351808285015260005b818110156108a257858101830151858201604001528201610886565b818111156108b4576000604083870101525b50601f01601f1916929092016040019392505050565b80356001600160a01b03811681146108e157600080fd5b919050565b600080604083850312156108f957600080fd5b610902836108ca565b946020939093013593505050565b60008060006060848603121561092557600080fd5b61092e846108ca565b925061093c602085016108ca565b9150604084013590509250925092565b60006020828403121561095e57600080fd5b5035919050565b60006020828403121561097757600080fd5b610980826108ca565b9392505050565b6000806040838503121561099a57600080fd5b6109a3836108ca565b91506109b1602084016108ca565b90509250929050565b600181811c908216806109ce57607f821691505b602082108114156109ef57634e487b7160e01b600052602260045260246000fd5b50919050565b634e487b7160e01b600052601160045260246000fd5b60008219821115610a1e57610a1e6109f5565b500190565b600082821015610a3557610a356109f5565b50039056fea2646970667358221220e30cba77866fcd17a332b0406d8e312a3cce62f351f66d943c0abd2fd26be64364736f6c634300080a003360806040523480156200001157600080fd5b5060405162000f3838038062000f3883398101604081905262000034916200034b565b8251839083906200004d906003906020850190620001d8565b50805162000063906004906020840190620001d8565b50505060008111620000bc5760405162461bcd60e51b815260206004820152601560248201527f45524332304361707065643a206361702069732030000000000000000000000060448201526064015b60405180910390fd5b6006819055600580546001600160a01b0319166001600160a01b038716179055620000e88585620000f3565b50505050506200044d565b6001600160a01b0382166200014b5760405162461bcd60e51b815260206004820152601f60248201527f45524332303a206d696e7420746f20746865207a65726f2061646472657373006044820152606401620000b3565b80600260008282546200015f9190620003e9565b90915550506001600160a01b038216600090815260208190526040812080548392906200018e908490620003e9565b90915550506040518181526001600160a01b038316906000907fddf252ad1be2c89b69c2b068fc378daa952ba7f163c4a11628f55a4df523b3ef9060200160405180910390a35050565b828054620001e69062000410565b90600052602060002090601f0160209004810192826200020a576000855562000255565b82601f106200022557805160ff191683800117855562000255565b8280016001018555821562000255579182015b828111156200025557825182559160200191906001019062000238565b506200026392915062000267565b5090565b5b8082111562000263576000815560010162000268565b634e487b7160e01b600052604160045260246000fd5b600082601f830112620002a657600080fd5b81516001600160401b0380821115620002c357620002c36200027e565b604051601f8301601f19908116603f01168101908282118183101715620002ee57620002ee6200027e565b816040528381526020925086838588010111156200030b57600080fd5b600091505b838210156200032f578582018301518183018401529082019062000310565b83821115620003415760008385830101525b9695505050505050565b600080600080600060a086880312156200036457600080fd5b85516001600160a01b03811681146200037c57600080fd5b6020870151604088015191965094506001600160401b0380821115620003a157600080fd5b620003af89838a0162000294565b94506060880151915080821115620003c657600080fd5b50620003d58882890162000294565b925050608086015190509295509295909350565b600082198211156200040b57634e487b7160e01b600052601160045260246000fd5b500190565b600181811c908216806200042557607f821691505b602082108114156200044757634e487b7160e01b600052602260045260246000fd5b50919050565b610adb806200045d6000396000f3fe608060405234801561001057600080fd5b50600436106100cf5760003560e01c806370a082311161008c578063a457c2d711610066578063a457c2d7146101a2578063a9059cbb146101b5578063b4a99a4e146101c8578063dd62ed3e146101f357600080fd5b806370a082311461015c57806395d89b4114610185578063a0712d681461018d57600080fd5b806306fdde03146100d4578063095ea7b3146100f257806318160ddd1461011557806323b872dd14610127578063313ce5671461013a5780633950935114610149575b600080fd5b6100dc61022c565b6040516100e991906108ff565b60405180910390f35b610105610100366004610970565b6102be565b60405190151581526020016100e9565b6002545b6040519081526020016100e9565b61010561013536600461099a565b6102d4565b604051601281526020016100e9565b610105610157366004610970565b610383565b61011961016a3660046109d6565b6001600160a01b031660009081526020819052604090205490565b6100dc6103bf565b6101a061019b3660046109f8565b6103ce565b005b6101056101b0366004610970565b610487565b6101056101c3366004610970565b610520565b6005546101db906001600160a01b031681565b6040516001600160a01b0390911681526020016100e9565b610119610201366004610a11565b6001600160a01b03918216600090815260016020908152604080832093909416825291909152205490565b60606003805461023b90610a44565b80601f016020809104026020016040519081016040528092919081815260200182805461026790610a44565b80156102b45780601f10610289576101008083540402835291602001916102b4565b820191906000526020600020905b81548152906001019060200180831161029757829003601f168201915b5050505050905090565b60006102cb33848461052d565b50600192915050565b60006102e1848484610651565b6001600160a01b03841660009081526001602090815260408083203384529091529020548281101561036b5760405162461bcd60e51b815260206004820152602860248201527f45524332303a207472616e7366657220616d6f756e74206578636565647320616044820152676c6c6f77616e636560c01b60648201526084015b60405180910390fd5b610378853385840361052d565b506001949350505050565b3360008181526001602090815260408083206001600160a01b038716845290915281205490916102cb9185906103ba908690610a7f565b61052d565b60606004805461023b90610a44565b6005546001600160a01b031633146104155760405162461bcd60e51b815260206004820152600a60248201526937b7363c9027bbb732b960b11b6044820152606401610362565b6006548161042260025490565b61042c9190610a7f565b111561047a5760405162461bcd60e51b815260206004820152601960248201527f45524332304361707065643a20636170206578636565646564000000000000006044820152606401610362565b6104843382610820565b50565b3360009081526001602090815260408083206001600160a01b0386168452909152812054828110156105095760405162461bcd60e51b815260206004820152602560248201527f45524332303a2064656372656173656420616c6c6f77616e63652062656c6f77604482015264207a65726f60d81b6064820152608401610362565b610516338585840361052d565b5060019392505050565b60006102cb338484610651565b6001600160a01b03831661058f5760405162461bcd60e51b8152602060048201526024808201527f45524332303a20617070726f76652066726f6d20746865207a65726f206164646044820152637265737360e01b6064820152608401610362565b6001600160a01b0382166105f05760405162461bcd60e51b815260206004820152602260248201527f45524332303a20617070726f766520746f20746865207a65726f206164647265604482015261737360f01b6064820152608401610362565b6001600160a01b0383811660008181526001602090815260408083209487168084529482529182902085905590518481527f8c5be1e5ebec7d5bd14f71427d1e84f3dd0314c0f7b2291e5b200ac8c7c3b925910160405180910390a3505050565b6001600160a01b0383166106b55760405162461bcd60e51b815260206004820152602560248201527f45524332303a207472616e736665722066726f6d20746865207a65726f206164604482015264647265737360d81b6064820152608401610362565b6001600160a01b0382166107175760405162461bcd60e51b815260206004820152602360248201527f45524332303a207472616e7366657220746f20746865207a65726f206164647260448201526265737360e81b6064820152608401610362565b6001600160a01b0383166000908152602081905260409020548181101561078f5760405162461bcd60e51b815260206004820152602660248201527f45524332303a207472616e7366657220616d6f756e7420657863656564732062604482015265616c616e636560d01b6064820152608401610362565b6001600160a01b038085166000908152602081905260408082208585039055918516815290812080548492906107c6908490610a7f565b92505081905550826001600160a01b0316846001600160a01b03167fddf252ad1be2c89b69c2b068fc378daa952ba7f163c4a11628f55a4df523b3ef8460405161081291815260200190565b60405180910390a350505050565b6001600160a01b0382166108765760405162461bcd60e51b815260206004820152601f60248201527f45524332303a206d696e7420746f20746865207a65726f2061646472657373006044820152606401610362565b80600260008282546108889190610a7f565b90915550506001600160a01b038216600090815260208190526040812080548392906108b5908490610a7f565b90915550506040518181526001600160a01b038316906000907fddf252ad1be2c89b69c2b068fc378daa952ba7f163c4a11628f55a4df523b3ef9060200160405180910390a35050565b600060208083528351808285015260005b8181101561092c57858101830151858201604001528201610910565b8181111561093e576000604083870101525b50601f01601f1916929092016040019392505050565b80356001600160a01b038116811461096b57600080fd5b919050565b6000806040838503121561098357600080fd5b61098c83610954565b946020939093013593505050565b6000806000606084860312156109af57600080fd5b6109b884610954565b92506109c660208501610954565b9150604084013590509250925092565b6000602082840312156109e857600080fd5b6109f182610954565b9392505050565b600060208284031215610a0a57600080fd5b5035919050565b60008060408385031215610a2457600080fd5b610a2d83610954565b9150610a3b60208401610954565b90509250929050565b600181811c90821680610a5857607f821691505b60208210811415610a7957634e487b7160e01b600052602260045260246000fd5b50919050565b60008219821115610aa057634e487b7160e01b600052601160045260246000fd5b50019056fea2646970667358221220c044685b7fdcef3acd701395037c6075eccb40971e821375c1fa01da5e14e6fd64736f6c634300080a003360806040523480156200001157600080fd5b5060405162000e7038038062000e708339810160408190526200003491620002f2565b8151829082906200004d9060039060208501906200017f565b508051620000639060049060208401906200017f565b5050600580546001600160a01b0319166001600160a01b038716179055506200008d848462000097565b50505050620003ea565b6001600160a01b038216620000f25760405162461bcd60e51b815260206004820152601f60248201527f45524332303a206d696e7420746f20746865207a65726f206164647265737300604482015260640160405180910390fd5b806002600082825462000106919062000386565b90915550506001600160a01b038216600090815260208190526040812080548392906200013590849062000386565b90915550506040518181526001600160a01b038316906000907fddf252ad1be2c89b69c2b068fc378daa952ba7f163c4a11628f55a4df523b3ef9060200160405180910390a35050565b8280546200018d90620003ad565b90600052602060002090601f016020900481019282620001b15760008555620001fc565b82601f10620001cc57805160ff1916838001178555620001fc565b82800160010185558215620001fc579182015b82811115620001fc578251825591602001919060010190620001df565b506200020a9291506200020e565b5090565b5b808211156200020a57600081556001016200020f565b634e487b7160e01b600052604160045260246000fd5b600082601f8301126200024d57600080fd5b81516001600160401b03808211156200026a576200026a62000225565b604051601f8301601f19908116603f0116810190828211818310171562000295576200029562000225565b81604052838152602092508683858801011115620002b257600080fd5b600091505b83821015620002d65785820183015181830184015290820190620002b7565b83821115620002e85760008385830101525b9695505050505050565b600080600080608085870312156200030957600080fd5b84516001600160a01b03811681146200032157600080fd5b6020860151604087015191955093506001600160401b03808211156200034657600080fd5b62000354888389016200023b565b935060608701519150808211156200036b57600080fd5b506200037a878288016200023b565b91505092959194509250565b60008219821115620003a857634e487b7160e01b600052601160045260246000fd5b500190565b600181811c90821680620003c257607f821691505b60208210811415620003e457634e487b7160e01b600052602260045260246000fd5b50919050565b610a7680620003fa6000396000f3fe608060405234801561001057600080fd5b50600436106100cf5760003560e01c806370a082311161008c578063a457c2d711610066578063a457c2d7146101a2578063a9059cbb146101b5578063b4a99a4e146101c8578063dd62ed3e146101f357600080fd5b806370a082311461015c57806395d89b4114610185578063a0712d681461018d57600080fd5b806306fdde03146100d4578063095ea7b3146100f257806318160ddd1461011557806323b872dd14610127578063313ce5671461013a5780633950935114610149575b600080fd5b6100dc61022c565b6040516100e9919061089a565b60405180910390f35b61010561010036600461090b565b6102be565b60405190151581526020016100e9565b6002545b6040519081526020016100e9565b610105610135366004610935565b6102d4565b604051601281526020016100e9565b61010561015736600461090b565b610383565b61011961016a366004610971565b6001600160a01b031660009081526020819052604090205490565b6100dc6103bf565b6101a061019b366004610993565b6103ce565b005b6101056101b036600461090b565b610422565b6101056101c336600461090b565b6104bb565b6005546101db906001600160a01b031681565b6040516001600160a01b0390911681526020016100e9565b6101196102013660046109ac565b6001600160a01b03918216600090815260016020908152604080832093909416825291909152205490565b60606003805461023b906109df565b80601f0160208091040260200160405190810160405280929190818152602001828054610267906109df565b80156102b45780601f10610289576101008083540402835291602001916102b4565b820191906000526020600020905b81548152906001019060200180831161029757829003601f168201915b5050505050905090565b60006102cb3384846104c8565b50600192915050565b60006102e18484846105ec565b6001600160a01b03841660009081526001602090815260408083203384529091529020548281101561036b5760405162461bcd60e51b815260206004820152602860248201527f45524332303a207472616e7366657220616d6f756e74206578636565647320616044820152676c6c6f77616e636560c01b60648201526084015b60405180910390fd5b61037885338584036104c8565b506001949350505050565b3360008181526001602090815260408083206001600160a01b038716845290915281205490916102cb9185906103ba908690610a1a565b6104c8565b60606004805461023b906109df565b6005546001600160a01b031633146104155760405162461bcd60e51b815260206004820152600a60248201526937b7363c9027bbb732b960b11b6044820152606401610362565b61041f33826107bb565b50565b3360009081526001602090815260408083206001600160a01b0386168452909152812054828110156104a45760405162461bcd60e51b815260206004820152602560248201527f45524332303a2064656372656173656420616c6c6f77616e63652062656c6f77604482015264207a65726f60d81b6064820152608401610362565b6104b133858584036104c8565b5060019392505050565b60006102cb3384846105ec565b6001600160a01b03831661052a5760405162461bcd60e51b8152602060048201526024808201527f45524332303a20617070726f76652066726f6d20746865207a65726f206164646044820152637265737360e01b6064820152608401610362565b6001600160a01b03821661058b5760405162461bcd60e51b815260206004820152602260248201527f45524332303a20617070726f766520746f20746865207a65726f206164647265604482015261737360f01b6064820152608401610362565b6001600160a01b0383811660008181526001602090815260408083209487168084529482529182902085905590518481527f8c5be1e5ebec7d5bd14f71427d1e84f3dd0314c0f7b2291e5b200ac8c7c3b925910160405180910390a3505050565b6001600160a01b0383166106505760405162461bcd60e51b815260206004820152602560248201527f45524332303a207472616e736665722066726f6d20746865207a65726f206164604482015264647265737360d81b6064820152608401610362565b6001600160a01b0382166106b25760405162461bcd60e51b815260206004820152602360248201527f45524332303a207472616e7366657220746f20746865207a65726f206164647260448201526265737360e81b6064820152608401610362565b6001600160a01b0383166000908152602081905260409020548181101561072a5760405162461bcd60e51b815260206004820152602660248201527f45524332303a207472616e7366657220616d6f756e7420657863656564732062604482015265616c616e636560d01b6064820152608401610362565b6001600160a01b03808516600090815260208190526040808220858503905591851681529081208054849290610761908490610a1a565b92505081905550826001600160a01b0316846001600160a01b03167fddf252ad1be2c89b69c2b068fc378daa952ba7f163c4a11628f55a4df523b3ef846040516107ad91815260200190565b60405180910390a350505050565b6001600160a01b0382166108115760405162461bcd60e51b815260206004820152601f60248201527f45524332303a206d696e7420746f20746865207a65726f2061646472657373006044820152606401610362565b80600260008282546108239190610a1a565b90915550506001600160a01b03821660009081526020819052604081208054839290610850908490610a1a565b90915550506040518181526001600160a01b038316906000907fddf252ad1be2c89b69c2b068fc378daa952ba7f163c4a11628f55a4df523b3ef9060200160405180910390a35050565b600060208083528351808285015260005b818110156108c7578581018301518582016040015282016108ab565b818111156108d9576000604083870101525b50601f01601f1916929092016040019392505050565b80356001600160a01b038116811461090657600080fd5b919050565b6000806040838503121561091e57600080fd5b610927836108ef565b946020939093013593505050565b60008060006060848603121561094a57600080fd5b610953846108ef565b9250610961602085016108ef565b9150604084013590509250925092565b60006020828403121561098357600080fd5b61098c826108ef565b9392505050565b6000602082840312156109a557600080fd5b5035919050565b600080604083850312156109bf57600080fd5b6109c8836108ef565b91506109d6602084016108ef565b90509250929050565b600181811c908216806109f357607f821691505b60208210811415610a1457634e487b7160e01b600052602260045260246000fd5b50919050565b60008219821115610a3b57634e487b7160e01b600052601160045260246000fd5b50019056fea26469706673582212204c01d5867237f92aab323ea1951f1737d32d73b485fd453c8fdfaee75700cacd64736f6c634300080a003360806040523480156200001157600080fd5b5060405162000ca938038062000ca98339810160408190526200003491620002dd565b8151829082906200004d9060039060208501906200016a565b508051620000639060049060208401906200016a565b5050506200007884846200008260201b60201c565b50505050620003d5565b6001600160a01b038216620000dd5760405162461bcd60e51b815260206004820152601f60248201527f45524332303a206d696e7420746f20746865207a65726f206164647265737300604482015260640160405180910390fd5b8060026000828254620000f1919062000371565b90915550506001600160a01b038216600090815260208190526040812080548392906200012090849062000371565b90915550506040518181526001600160a01b038316906000907fddf252ad1be2c89b69c2b068fc378daa952ba7f163c4a11628f55a4df523b3ef9060200160405180910390a35050565b828054620001789062000398565b90600052602060002090601f0160209004810192826200019c5760008555620001e7565b82601f10620001b757805160ff1916838001178555620001e7565b82800160010185558215620001e7579182015b82811115620001e7578251825591602001919060010190620001ca565b50620001f5929150620001f9565b5090565b5b80821115620001f55760008155600101620001fa565b634e487b7160e01b600052604160045260246000fd5b600082601f8301126200023857600080fd5b81516001600160401b038082111562000255576200025562000210565b604051601f8301601f19908116603f0116810190828211818310171562000280576200028062000210565b816040528381526020925086838588010111156200029d57600080fd5b600091505b83821015620002c15785820183015181830184015290820190620002a2565b83821115620002d35760008385830101525b9695505050505050565b60008060008060808587031215620002f457600080fd5b84516001600160a01b03811681146200030c57600080fd5b6020860151604087015191955093506001600160401b03808211156200033157600080fd5b6200033f8883890162000226565b935060608701519150808211156200035657600080fd5b50620003658782880162000226565b91505092959194509250565b600082198211156200039357634e487b7160e01b600052601160045260246000fd5b500190565b600181811c90821680620003ad57607f821691505b60208210811415620003cf57634e487b7160e01b600052602260045260246000fd5b50919050565b6108c480620003e56000396000f3fe608060405234801561001057600080fd5b50600436106100a95760003560e01c80633950935111610071578063395093511461012357806370a082311461013657806395d89b411461015f578063a457c2d714610167578063a9059cbb1461017a578063dd62ed3e1461018d57600080fd5b806306fdde03146100ae578063095ea7b3146100cc57806318160ddd146100ef57806323b872dd14610101578063313ce56714610114575b600080fd5b6100b66101c6565b6040516100c39190610701565b60405180910390f35b6100df6100da366004610772565b610258565b60405190151581526020016100c3565b6002545b6040519081526020016100c3565b6100df61010f36600461079c565b61026e565b604051601281526020016100c3565b6100df610131366004610772565b61031d565b6100f36101443660046107d8565b6001600160a01b031660009081526020819052604090205490565b6100b6610359565b6100df610175366004610772565b610368565b6100df610188366004610772565b610401565b6100f361019b3660046107fa565b6001600160a01b03918216600090815260016020908152604080832093909416825291909152205490565b6060600380546101d59061082d565b80601f01602080910402602001604051908101604052809291908181526020018280546102019061082d565b801561024e5780601f106102235761010080835404028352916020019161024e565b820191906000526020600020905b81548152906001019060200180831161023157829003601f168201915b5050505050905090565b600061026533848461040e565b50600192915050565b600061027b848484610532565b6001600160a01b0384166000908152600160209081526040808320338452909152902054828110156103055760405162461bcd60e51b815260206004820152602860248201527f45524332303a207472616e7366657220616d6f756e74206578636565647320616044820152676c6c6f77616e636560c01b60648201526084015b60405180910390fd5b610312853385840361040e565b506001949350505050565b3360008181526001602090815260408083206001600160a01b03871684529091528120549091610265918590610354908690610868565b61040e565b6060600480546101d59061082d565b3360009081526001602090815260408083206001600160a01b0386168452909152812054828110156103ea5760405162461bcd60e51b815260206004820152602560248201527f45524332303a2064656372656173656420616c6c6f77616e63652062656c6f77604482015264207a65726f60d81b60648201526084016102fc565b6103f7338585840361040e565b5060019392505050565b6000610265338484610532565b6001600160a01b0383166104705760405162461bcd60e51b8152602060048201526024808201527f45524332303a20617070726f76652066726f6d20746865207a65726f206164646044820152637265737360e01b60648201526084016102fc565b6001600160a01b0382166104d15760405162461bcd60e51b815260206004820152602260248201527f45524332303a20617070726f766520746f20746865207a65726f206164647265604482015261737360f01b60648201526084016102fc565b6001600160a01b0383811660008181526001602090815260408083209487168084529482529182902085905590518481527f8c5be1e5ebec7d5bd14f71427d1e84f3dd0314c0f7b2291e5b200ac8c7c3b925910160405180910390a3505050565b6001600160a01b0383166105965760405162461bcd60e51b815260206004820152602560248201527f45524332303a207472616e736665722066726f6d20746865207a65726f206164604482015264647265737360d81b60648201526084016102fc565b6001600160a01b0382166105f85760405162461bcd60e51b815260206004820152602360248201527f45524332303a207472616e7366657220746f20746865207a65726f206164647260448201526265737360e81b60648201526084016102fc565b6001600160a01b038316600090815260208190526040902054818110156106705760405162461bcd60e51b815260206004820152602660248201527f45524332303a207472616e7366657220616d6f756e7420657863656564732062604482015265616c616e636560d01b60648201526084016102fc565b6001600160a01b038085166000908152602081905260408082208585039055918516815290812080548492906106a7908490610868565b92505081905550826001600160a01b0316846001600160a01b03167fddf252ad1be2c89b69c2b068fc378daa952ba7f163c4a11628f55a4df523b3ef846040516106f391815260200190565b60405180910390a350505050565b600060208083528351808285015260005b8181101561072e57858101830151858201604001528201610712565b81811115610740576000604083870101525b50601f01601f1916929092016040019392505050565b80356001600160a01b038116811461076d57600080fd5b919050565b6000806040838503121561078557600080fd5b61078e83610756565b946020939093013593505050565b6000806000606084860312156107b157600080fd5b6107ba84610756565b92506107c860208501610756565b9150604084013590509250925092565b6000602082840312156107ea57600080fd5b6107f382610756565b9392505050565b6000806040838503121561080d57600080fd5b61081683610756565b915061082460208401610756565b90509250929050565b600181811c9082168061084157607f821691505b6020821081141561086257634e487b7160e01b600052602260045260246000fd5b50919050565b6000821982111561088957634e487b7160e01b600052601160045260246000fd5b50019056fea2646970667358221220adc7f9d5ce678115318e4fe0f4dd88201ca8cb3f9f567735cee0120ab1e6793564736f6c634300080a0033a2646970667358221220140a26fefa7447d5c48be4218f8484f8b0ddd69814df482ecbd0001d93f04ecd64736f6c634300080a0033",
  "immutableReferences": {},
  "source": "// contracts/GLDToken.sol\r\n// SPDX-License-Identifier: MIT\r\n\r\npragma solidity ^0.8.0;\r\n\r\nimport \"./tokenStandards/ERC20_Standard.sol\";\r\nimport \"./tokenStandards/ERC20_Burnable.sol\";\r\nimport \"./tokenStandards/ERC20_Mintable.sol\";\r\nimport \"./tokenStandards/ERC20_Capped.sol\";\r\nimport \"./tokenStandards/ERC20_Pepper.sol\";\r\n\r\n\r\ncontract ErcFactory{\r\n    event TokenCreated (address indexed _tokenAddress);\r\n\r\n    function createStandardToken(uint256 initialSupply, string memory name, string memory symbol)external returns(address TokenAddress){\r\n        ERC20  newToken = new ERC20_Standard(msg.sender, initialSupply, name, symbol);\r\n        emit TokenCreated(address(newToken));\r\n        return address(newToken);\r\n    }\r\n    function createBurnableToken(uint256 initialSupply, string memory name, string memory symbol)external returns(address TokenAddress){\r\n        ERC20  newToken = new ERC20_Burnable(msg.sender, initialSupply, name, symbol);\r\n        emit TokenCreated(address(newToken));\r\n        return address(newToken);\r\n    }\r\n\r\n    function createMintableToken(uint256 initialSupply, string memory name, string memory symbol)external returns(address){\r\n    ERC20_Mintable newToken = new ERC20_Mintable(msg.sender, initialSupply, name, symbol);\r\n    emit TokenCreated(address(newToken));\r\n\r\n    return address(newToken);\r\n  }\r\n  function createCappedToken(uint256 initialSupply, string memory name, string memory symbol, uint256 _cap)external returns(address){\r\n  ERC20_Capped newToken = new ERC20_Capped(msg.sender, initialSupply, name, symbol, _cap);\r\n  emit TokenCreated(address(newToken));\r\n\r\n  return address(newToken);\r\n}\r\n\r\nfunction createPepperToken(uint256 initialSupply, string memory name, string memory symbol)external returns(address){\r\n  ERC20_Pepper newToken = new ERC20_Pepper(msg.sender, initialSupply, name, symbol);\r\n  emit TokenCreated(address(newToken));\r\n\r\nreturn address(newToken);\r\n}\r\n}\r\n",
  "sourcePath": "C:\\Users\\Nutzer\\Documents\\DefiSpices\\Protocol\\contracts\\DefiSpicesFactory.sol",
  "compiler": {
    "name": "solc",
    "version": "0.8.10+commit.fc410830.Emscripten.clang"
  },
  "schemaVersion": "3.4.4",
  "updatedAt": "2022-02-18T22:25:37.553Z",
  "devdoc": {
    "kind": "dev",
    "methods": {},
    "version": 1
  },
  "userdoc": {
    "kind": "user",
    "methods": {},
    "version": 1
  }
}